{
  "contractName": "Waitlist",
  "abi": [
    {
      "inputs": [
        {
          "internalType": "address",
          "name": "doctor",
          "type": "address"
        },
        {
          "internalType": "address",
          "name": "donor",
          "type": "address"
        }
      ],
      "stateMutability": "nonpayable",
      "type": "constructor"
    },
    {
      "anonymous": false,
      "inputs": [
        {
          "indexed": false,
          "internalType": "uint256",
          "name": "patient_id",
          "type": "uint256"
        },
        {
          "indexed": false,
          "internalType": "bool",
          "name": "in_list",
          "type": "bool"
        }
      ],
      "name": "AddedToWaitlist",
      "type": "event"
    },
    {
      "anonymous": false,
      "inputs": [
        {
          "indexed": false,
          "internalType": "uint256",
          "name": "donor_id",
          "type": "uint256"
        },
        {
          "indexed": false,
          "internalType": "string",
          "name": "donor_name",
          "type": "string"
        },
        {
          "indexed": false,
          "internalType": "uint256",
          "name": "age",
          "type": "uint256"
        },
        {
          "indexed": false,
          "internalType": "string",
          "name": "organ",
          "type": "string"
        },
        {
          "indexed": false,
          "internalType": "string",
          "name": "blood_type",
          "type": "string"
        },
        {
          "indexed": false,
          "internalType": "bool",
          "name": "matched",
          "type": "bool"
        }
      ],
      "name": "DonorRegistered",
      "type": "event"
    },
    {
      "anonymous": false,
      "inputs": [
        {
          "indexed": false,
          "internalType": "uint256",
          "name": "recipient_id",
          "type": "uint256"
        },
        {
          "indexed": false,
          "internalType": "uint256",
          "name": "donor_id",
          "type": "uint256"
        },
        {
          "indexed": false,
          "internalType": "bool",
          "name": "success",
          "type": "bool"
        }
      ],
      "name": "MatchedToDonor",
      "type": "event"
    },
    {
      "anonymous": false,
      "inputs": [
        {
          "indexed": true,
          "internalType": "bytes32",
          "name": "role",
          "type": "bytes32"
        },
        {
          "indexed": true,
          "internalType": "bytes32",
          "name": "previousAdminRole",
          "type": "bytes32"
        },
        {
          "indexed": true,
          "internalType": "bytes32",
          "name": "newAdminRole",
          "type": "bytes32"
        }
      ],
      "name": "RoleAdminChanged",
      "type": "event"
    },
    {
      "anonymous": false,
      "inputs": [
        {
          "indexed": true,
          "internalType": "bytes32",
          "name": "role",
          "type": "bytes32"
        },
        {
          "indexed": true,
          "internalType": "address",
          "name": "account",
          "type": "address"
        },
        {
          "indexed": true,
          "internalType": "address",
          "name": "sender",
          "type": "address"
        }
      ],
      "name": "RoleGranted",
      "type": "event"
    },
    {
      "anonymous": false,
      "inputs": [
        {
          "indexed": true,
          "internalType": "bytes32",
          "name": "role",
          "type": "bytes32"
        },
        {
          "indexed": true,
          "internalType": "address",
          "name": "account",
          "type": "address"
        },
        {
          "indexed": true,
          "internalType": "address",
          "name": "sender",
          "type": "address"
        }
      ],
      "name": "RoleRevoked",
      "type": "event"
    },
    {
      "inputs": [],
      "name": "DEFAULT_ADMIN_ROLE",
      "outputs": [
        {
          "internalType": "bytes32",
          "name": "",
          "type": "bytes32"
        }
      ],
      "stateMutability": "view",
      "type": "function",
      "constant": true
    },
    {
      "inputs": [],
      "name": "DOCTOR",
      "outputs": [
        {
          "internalType": "bytes32",
          "name": "",
          "type": "bytes32"
        }
      ],
      "stateMutability": "view",
      "type": "function",
      "constant": true
    },
    {
      "inputs": [],
      "name": "DONOR",
      "outputs": [
        {
          "internalType": "bytes32",
          "name": "",
          "type": "bytes32"
        }
      ],
      "stateMutability": "view",
      "type": "function",
      "constant": true
    },
    {
      "inputs": [
        {
          "internalType": "bytes32",
          "name": "role",
          "type": "bytes32"
        }
      ],
      "name": "getRoleAdmin",
      "outputs": [
        {
          "internalType": "bytes32",
          "name": "",
          "type": "bytes32"
        }
      ],
      "stateMutability": "view",
      "type": "function",
      "constant": true
    },
    {
      "inputs": [
        {
          "internalType": "bytes32",
          "name": "role",
          "type": "bytes32"
        },
        {
          "internalType": "address",
          "name": "account",
          "type": "address"
        }
      ],
      "name": "grantRole",
      "outputs": [],
      "stateMutability": "nonpayable",
      "type": "function"
    },
    {
      "inputs": [
        {
          "internalType": "bytes32",
          "name": "role",
          "type": "bytes32"
        },
        {
          "internalType": "address",
          "name": "account",
          "type": "address"
        }
      ],
      "name": "hasRole",
      "outputs": [
        {
          "internalType": "bool",
          "name": "",
          "type": "bool"
        }
      ],
      "stateMutability": "view",
      "type": "function",
      "constant": true
    },
    {
      "inputs": [
        {
          "internalType": "bytes32",
          "name": "role",
          "type": "bytes32"
        },
        {
          "internalType": "address",
          "name": "account",
          "type": "address"
        }
      ],
      "name": "renounceRole",
      "outputs": [],
      "stateMutability": "nonpayable",
      "type": "function"
    },
    {
      "inputs": [
        {
          "internalType": "bytes32",
          "name": "role",
          "type": "bytes32"
        },
        {
          "internalType": "address",
          "name": "account",
          "type": "address"
        }
      ],
      "name": "revokeRole",
      "outputs": [],
      "stateMutability": "nonpayable",
      "type": "function"
    },
    {
      "inputs": [
        {
          "internalType": "bytes4",
          "name": "interfaceId",
          "type": "bytes4"
        }
      ],
      "name": "supportsInterface",
      "outputs": [
        {
          "internalType": "bool",
          "name": "",
          "type": "bool"
        }
      ],
      "stateMutability": "view",
      "type": "function",
      "constant": true
    },
    {
      "inputs": [
        {
          "internalType": "address",
          "name": "doctor",
          "type": "address"
        }
      ],
      "name": "grant_doctor_role",
      "outputs": [],
      "stateMutability": "nonpayable",
      "type": "function"
    },
    {
      "inputs": [
        {
          "internalType": "address",
          "name": "donor",
          "type": "address"
        }
      ],
      "name": "grant_donor_role",
      "outputs": [],
      "stateMutability": "nonpayable",
      "type": "function"
    },
    {
      "inputs": [],
      "name": "get_waitlist",
      "outputs": [
        {
          "components": [
            {
              "internalType": "uint256",
              "name": "id",
              "type": "uint256"
            },
            {
              "internalType": "string",
              "name": "name",
              "type": "string"
            },
            {
              "internalType": "int256",
              "name": "recipient_id",
              "type": "int256"
            },
            {
              "internalType": "uint256",
              "name": "age",
              "type": "uint256"
            },
            {
              "internalType": "enum Waitlist.Organ",
              "name": "organ",
              "type": "uint8"
            },
            {
              "internalType": "enum Waitlist.BloodType",
              "name": "blood_type",
              "type": "uint8"
            }
          ],
          "internalType": "struct Waitlist.Donor[]",
          "name": "",
          "type": "tuple[]"
        },
        {
          "components": [
            {
              "internalType": "uint256",
              "name": "id",
              "type": "uint256"
            },
            {
              "internalType": "string",
              "name": "name",
              "type": "string"
            },
            {
              "internalType": "int256",
              "name": "donor_id",
              "type": "int256"
            },
            {
              "internalType": "uint256",
              "name": "severity",
              "type": "uint256"
            },
            {
              "internalType": "uint256",
              "name": "score",
              "type": "uint256"
            },
            {
              "internalType": "uint256",
              "name": "age",
              "type": "uint256"
            },
            {
              "internalType": "enum Waitlist.Organ",
              "name": "organ",
              "type": "uint8"
            },
            {
              "internalType": "enum Waitlist.BloodType",
              "name": "blood_type",
              "type": "uint8"
            }
          ],
          "internalType": "struct Waitlist.Recipient[]",
          "name": "",
          "type": "tuple[]"
        }
      ],
      "stateMutability": "nonpayable",
      "type": "function"
    },
    {
      "inputs": [
        {
          "internalType": "string",
          "name": "_name",
          "type": "string"
        },
        {
          "internalType": "uint256",
          "name": "_severity",
          "type": "uint256"
        },
        {
          "internalType": "uint256",
          "name": "_score",
          "type": "uint256"
        },
        {
          "internalType": "uint256",
          "name": "_age",
          "type": "uint256"
        },
        {
          "internalType": "enum Waitlist.Organ",
          "name": "_organ",
          "type": "uint8"
        },
        {
          "internalType": "enum Waitlist.BloodType",
          "name": "_blood_type",
          "type": "uint8"
        }
      ],
      "name": "queue_recipient",
      "outputs": [],
      "stateMutability": "nonpayable",
      "type": "function"
    },
    {
      "inputs": [
        {
          "internalType": "uint256",
          "name": "_recipient_id",
          "type": "uint256"
        },
        {
          "internalType": "uint256",
          "name": "_donor_id",
          "type": "uint256"
        }
      ],
      "name": "match_donor",
      "outputs": [],
      "stateMutability": "nonpayable",
      "type": "function"
    },
    {
      "inputs": [
        {
          "internalType": "string",
          "name": "_name",
          "type": "string"
        },
        {
          "internalType": "uint256",
          "name": "_age",
          "type": "uint256"
        },
        {
          "internalType": "enum Waitlist.Organ",
          "name": "_organ",
          "type": "uint8"
        },
        {
          "internalType": "enum Waitlist.BloodType",
          "name": "_blood_type",
          "type": "uint8"
        }
      ],
      "name": "register_donor",
      "outputs": [],
      "stateMutability": "nonpayable",
      "type": "function"
    }
  ],
  "bytecode": "0x6080604052600060015560006002553480156200001b57600080fd5b506040516200370138038062003701833981810160405281019062000041919062000252565b620000566000801b33620000c260201b60201c565b620000887fc9c8e67a61d2e7371df46522b44051b955c16bf4b713ef44e1373b25bfcd80b283620000c260201b60201c565b620000ba7f7220c8c83db3df705edc2f907812addbce8b70b5f7208909f67735d3cf5ad72782620000c260201b60201c565b5050620002e1565b620000d48282620000d860201b60201c565b5050565b620000ea8282620001c960201b60201c565b620001c557600160008084815260200190815260200160002060000160008373ffffffffffffffffffffffffffffffffffffffff1673ffffffffffffffffffffffffffffffffffffffff16815260200190815260200160002060006101000a81548160ff0219169083151502179055506200016a6200023360201b60201c565b73ffffffffffffffffffffffffffffffffffffffff168173ffffffffffffffffffffffffffffffffffffffff16837f2f8788117e7eff1d82e926ec794901d17c78024a50270940304540a733656f0d60405160405180910390a45b5050565b600080600084815260200190815260200160002060000160008373ffffffffffffffffffffffffffffffffffffffff1673ffffffffffffffffffffffffffffffffffffffff16815260200190815260200160002060009054906101000a900460ff16905092915050565b600033905090565b6000815190506200024c81620002c7565b92915050565b600080604083850312156200026657600080fd5b600062000276858286016200023b565b925050602062000289858286016200023b565b9150509250929050565b6000620002a082620002a7565b9050919050565b600073ffffffffffffffffffffffffffffffffffffffff82169050919050565b620002d28162000293565b8114620002de57600080fd5b50565b61341080620002f16000396000f3fe608060405234801561001057600080fd5b50600436106100f55760003560e01c80634576d25111610097578063a217fddf11610066578063a217fddf14610271578063cf9bd03c1461028f578063d547741f146102ab578063e683377d146102c7576100f5565b80634576d251146101eb5780635c5afb31146102095780637a245e811461022557806391d1485414610241576100f5565b80632efbdf82116100d35780632efbdf82146101765780632f2ff15d1461019457806336568abe146101b05780633f4d12ac146101cc576100f5565b806301ffc9a7146100fa578063248a9ca31461012a5780632b15d2751461015a575b600080fd5b610114600480360381019061010f9190612718565b6102e3565b6040516101219190612d87565b60405180910390f35b610144600480360381019061013f91906126b3565b61035d565b6040516101519190612da2565b60405180910390f35b610174600480360381019061016f91906127bc565b61037c565b005b61017e6105ea565b60405161018b9190612da2565b60405180910390f35b6101ae60048036038101906101a991906126dc565b61060e565b005b6101ca60048036038101906101c591906126dc565b610637565b005b6101d46106ba565b6040516101e2929190612d50565b60405180910390f35b6101f3610c9f565b6040516102009190612da2565b60405180910390f35b610223600480360381019061021e919061268a565b610cc3565b005b61023f600480360381019061023a919061268a565b610d06565b005b61025b600480360381019061025691906126dc565b610d49565b6040516102689190612d87565b60405180910390f35b610279610db3565b6040516102869190612da2565b60405180910390f35b6102a960048036038101906102a49190612741565b610dba565b005b6102c560048036038101906102c091906126dc565b61169a565b005b6102e160048036038101906102dc919061285d565b6116c3565b005b60007f7965db0b000000000000000000000000000000000000000000000000000000007bffffffffffffffffffffffffffffffffffffffffffffffffffffffff1916827bffffffffffffffffffffffffffffffffffffffffffffffffffffffff19161480610356575061035582611dce565b5b9050919050565b6000806000838152602001908152602001600020600101549050919050565b7fc9c8e67a61d2e7371df46522b44051b955c16bf4b713ef44e1373b25bfcd80b26103ae816103a9611e38565b611e40565b60405180610100016040528060015481526020018881526020017fffffffffffffffffffffffffffffffffffffffffffffffffffffffffffffffff8152602001878152602001868152602001858152602001846004811115610439577f4e487b7100000000000000000000000000000000000000000000000000000000600052602160045260246000fd5b8152602001836003811115610477577f4e487b7100000000000000000000000000000000000000000000000000000000600052602160045260246000fd5b8152506003600060015481526020019081526020016000206000820151816000015560208201518160010190805190602001906104b59291906123a6565b5060408201518160020155606082015181600301556080820151816004015560a0820151816005015560c08201518160060160006101000a81548160ff0219169083600481111561052f577f4e487b7100000000000000000000000000000000000000000000000000000000600052602160045260246000fd5b021790555060e08201518160060160016101000a81548160ff02191690836003811115610585577f4e487b7100000000000000000000000000000000000000000000000000000000600052602160045260246000fd5b0217905550905050600160008154809291906105a090613220565b91905055507fba456091740fee93432790ed4e67cfed3cc3b89431c81a925c8741d16396f3ff60015460016040516105d9929190612e1f565b60405180910390a150505050505050565b7fc9c8e67a61d2e7371df46522b44051b955c16bf4b713ef44e1373b25bfcd80b281565b6106178261035d565b61062881610623611e38565b611e40565b6106328383611edd565b505050565b61063f611e38565b73ffffffffffffffffffffffffffffffffffffffff168173ffffffffffffffffffffffffffffffffffffffff16146106ac576040517f08c379a00000000000000000000000000000000000000000000000000000000081526004016106a390612dff565b60405180910390fd5b6106b68282611fbd565b5050565b6060807fc9c8e67a61d2e7371df46522b44051b955c16bf4b713ef44e1373b25bfcd80b26106ef816106ea611e38565b611e40565b600060025467ffffffffffffffff811115610733577f4e487b7100000000000000000000000000000000000000000000000000000000600052604160045260246000fd5b60405190808252806020026020018201604052801561076c57816020015b61075961242c565b8152602001906001900390816107515790505b509050600060015467ffffffffffffffff8111156107b3577f4e487b7100000000000000000000000000000000000000000000000000000000600052604160045260246000fd5b6040519080825280602002602001820160405280156107ec57816020015b6107d96124d2565b8152602001906001900390816107d15790505b50905060005b600254811015610a35576000600460008381526020019081526020016000209050806040518060c001604052908160008201548152602001600182018054610839906131ee565b80601f0160208091040260200160405190810160405280929190818152602001828054610865906131ee565b80156108b25780601f10610887576101008083540402835291602001916108b2565b820191906000526020600020905b81548152906001019060200180831161089557829003601f168201915b5050505050815260200160028201548152602001600382015481526020016004820160009054906101000a900460ff16600481111561091a577f4e487b7100000000000000000000000000000000000000000000000000000000600052602160045260246000fd5b6004811115610952577f4e487b7100000000000000000000000000000000000000000000000000000000600052602160045260246000fd5b81526020016004820160019054906101000a900460ff1660038111156109a1577f4e487b7100000000000000000000000000000000000000000000000000000000600052602160045260246000fd5b60038111156109d9577f4e487b7100000000000000000000000000000000000000000000000000000000600052602160045260246000fd5b81525050848381518110610a16577f4e487b7100000000000000000000000000000000000000000000000000000000600052603260045260246000fd5b6020026020010181905250508080610a2d90613220565b9150506107f2565b5060005b600154811015610c91576000600360008381526020019081526020016000209050806040518061010001604052908160008201548152602001600182018054610a81906131ee565b80601f0160208091040260200160405190810160405280929190818152602001828054610aad906131ee565b8015610afa5780601f10610acf57610100808354040283529160200191610afa565b820191906000526020600020905b815481529060010190602001808311610add57829003601f168201915b50505050508152602001600282015481526020016003820154815260200160048201548152602001600582015481526020016006820160009054906101000a900460ff166004811115610b76577f4e487b7100000000000000000000000000000000000000000000000000000000600052602160045260246000fd5b6004811115610bae577f4e487b7100000000000000000000000000000000000000000000000000000000600052602160045260246000fd5b81526020016006820160019054906101000a900460ff166003811115610bfd577f4e487b7100000000000000000000000000000000000000000000000000000000600052602160045260246000fd5b6003811115610c35577f4e487b7100000000000000000000000000000000000000000000000000000000600052602160045260246000fd5b81525050838381518110610c72577f4e487b7100000000000000000000000000000000000000000000000000000000600052603260045260246000fd5b6020026020010181905250508080610c8990613220565b915050610a39565b508181945094505050509091565b7f7220c8c83db3df705edc2f907812addbce8b70b5f7208909f67735d3cf5ad72781565b6000801b610cd881610cd3611e38565b611e40565b610d027fc9c8e67a61d2e7371df46522b44051b955c16bf4b713ef44e1373b25bfcd80b28361209e565b5050565b6000801b610d1b81610d16611e38565b611e40565b610d457f7220c8c83db3df705edc2f907812addbce8b70b5f7208909f67735d3cf5ad7278361209e565b5050565b600080600084815260200190815260200160002060000160008373ffffffffffffffffffffffffffffffffffffffff1673ffffffffffffffffffffffffffffffffffffffff16815260200190815260200160002060009054906101000a900460ff16905092915050565b6000801b81565b7f7220c8c83db3df705edc2f907812addbce8b70b5f7208909f67735d3cf5ad727610dec81610de7611e38565b611e40565b6040518060c0016040528060025481526020018681526020017fffffffffffffffffffffffffffffffffffffffffffffffffffffffffffffffff8152602001858152602001846004811115610e6a577f4e487b7100000000000000000000000000000000000000000000000000000000600052602160045260246000fd5b8152602001836003811115610ea8577f4e487b7100000000000000000000000000000000000000000000000000000000600052602160045260246000fd5b815250600460006002548152602001908152602001600020600082015181600001556020820151816001019080519060200190610ee69291906123a6565b50604082015181600201556060820151816003015560808201518160040160006101000a81548160ff02191690836004811115610f4c577f4e487b7100000000000000000000000000000000000000000000000000000000600052602160045260246000fd5b021790555060a08201518160040160016101000a81548160ff02191690836003811115610fa2577f4e487b7100000000000000000000000000000000000000000000000000000000600052602160045260246000fd5b021790555090505060026000815480929190610fbd90613220565b91905055506000604051806020016040528060008152509050600060405180602001604052806000815250905060006004811115611024577f4e487b7100000000000000000000000000000000000000000000000000000000600052602160045260246000fd5b85600481111561105d577f4e487b7100000000000000000000000000000000000000000000000000000000600052602160045260246000fd5b14156110a0576040518060400160405280600681526020017f6b69646e657900000000000000000000000000000000000000000000000000008152509150611377565b600160048111156110da577f4e487b7100000000000000000000000000000000000000000000000000000000600052602160045260246000fd5b856004811115611113577f4e487b7100000000000000000000000000000000000000000000000000000000600052602160045260246000fd5b1415611156576040518060400160405280600581526020017f6c697665720000000000000000000000000000000000000000000000000000008152509150611376565b60026004811115611190577f4e487b7100000000000000000000000000000000000000000000000000000000600052602160045260246000fd5b8560048111156111c9577f4e487b7100000000000000000000000000000000000000000000000000000000600052602160045260246000fd5b141561120c576040518060400160405280600481526020017f6c756e67000000000000000000000000000000000000000000000000000000008152509150611375565b60036004811115611246577f4e487b7100000000000000000000000000000000000000000000000000000000600052602160045260246000fd5b85600481111561127f577f4e487b7100000000000000000000000000000000000000000000000000000000600052602160045260246000fd5b14156112c2576040518060400160405280600881526020017f70616e63726561730000000000000000000000000000000000000000000000008152509150611374565b6004808111156112fb577f4e487b7100000000000000000000000000000000000000000000000000000000600052602160045260246000fd5b856004811115611334577f4e487b7100000000000000000000000000000000000000000000000000000000600052602160045260246000fd5b1415611373576040518060400160405280600981526020017f696e74657374696e65000000000000000000000000000000000000000000000081525091505b5b5b5b5b600060038111156113b1577f4e487b7100000000000000000000000000000000000000000000000000000000600052602160045260246000fd5b8460038111156113ea577f4e487b7100000000000000000000000000000000000000000000000000000000600052602160045260246000fd5b141561142d576040518060400160405280600181526020017f4100000000000000000000000000000000000000000000000000000000000000815250905061164d565b60016003811115611467577f4e487b7100000000000000000000000000000000000000000000000000000000600052602160045260246000fd5b8460038111156114a0577f4e487b7100000000000000000000000000000000000000000000000000000000600052602160045260246000fd5b14156114e3576040518060400160405280600181526020017f4200000000000000000000000000000000000000000000000000000000000000815250905061164c565b6002600381111561151d577f4e487b7100000000000000000000000000000000000000000000000000000000600052602160045260246000fd5b846003811115611556577f4e487b7100000000000000000000000000000000000000000000000000000000600052602160045260246000fd5b1415611599576040518060400160405280600281526020017f4142000000000000000000000000000000000000000000000000000000000000815250905061164b565b6003808111156115d2577f4e487b7100000000000000000000000000000000000000000000000000000000600052602160045260246000fd5b84600381111561160b577f4e487b7100000000000000000000000000000000000000000000000000000000600052602160045260246000fd5b141561164a576040518060400160405280600181526020017f4f0000000000000000000000000000000000000000000000000000000000000081525090505b5b5b5b7f365d1fb13593d3d43f509799e5b3c778251cd0ba592d7de0f0c72600e19ba0e560025488888585600060405161168996959493929190612e48565b60405180910390a150505050505050565b6116a38261035d565b6116b4816116af611e38565b611e40565b6116be8383611fbd565b505050565b7fc9c8e67a61d2e7371df46522b44051b955c16bf4b713ef44e1373b25bfcd80b26116f5816116f0611e38565b611e40565b6000600360008581526020019081526020016000206040518061010001604052908160008201548152602001600182018054611730906131ee565b80601f016020809104026020016040519081016040528092919081815260200182805461175c906131ee565b80156117a95780601f1061177e576101008083540402835291602001916117a9565b820191906000526020600020905b81548152906001019060200180831161178c57829003601f168201915b50505050508152602001600282015481526020016003820154815260200160048201548152602001600582015481526020016006820160009054906101000a900460ff166004811115611825577f4e487b7100000000000000000000000000000000000000000000000000000000600052602160045260246000fd5b600481111561185d577f4e487b7100000000000000000000000000000000000000000000000000000000600052602160045260246000fd5b81526020016006820160019054906101000a900460ff1660038111156118ac577f4e487b7100000000000000000000000000000000000000000000000000000000600052602160045260246000fd5b60038111156118e4577f4e487b7100000000000000000000000000000000000000000000000000000000600052602160045260246000fd5b8152505090506000600460008581526020019081526020016000206040518060c001604052908160008201548152602001600182018054611924906131ee565b80601f0160208091040260200160405190810160405280929190818152602001828054611950906131ee565b801561199d5780601f106119725761010080835404028352916020019161199d565b820191906000526020600020905b81548152906001019060200180831161198057829003601f168201915b5050505050815260200160028201548152602001600382015481526020016004820160009054906101000a900460ff166004811115611a05577f4e487b7100000000000000000000000000000000000000000000000000000000600052602160045260246000fd5b6004811115611a3d577f4e487b7100000000000000000000000000000000000000000000000000000000600052602160045260246000fd5b81526020016004820160019054906101000a900460ff166003811115611a8c577f4e487b7100000000000000000000000000000000000000000000000000000000600052602160045260246000fd5b6003811115611ac4577f4e487b7100000000000000000000000000000000000000000000000000000000600052602160045260246000fd5b8152505090507fffffffffffffffffffffffffffffffffffffffffffffffffffffffffffffffff8260400151148015611b2057507fffffffffffffffffffffffffffffffffffffffffffffffffffffffffffffffff8160400151145b15611d8a5783826040018181525050848160400181815250508160036000878152602001908152602001600020600082015181600001556020820151816001019080519060200190611b739291906123a6565b5060408201518160020155606082015181600301556080820151816004015560a0820151816005015560c08201518160060160006101000a81548160ff02191690836004811115611bed577f4e487b7100000000000000000000000000000000000000000000000000000000600052602160045260246000fd5b021790555060e08201518160060160016101000a81548160ff02191690836003811115611c43577f4e487b7100000000000000000000000000000000000000000000000000000000600052602160045260246000fd5b02179055509050508060046000868152602001908152602001600020600082015181600001556020820151816001019080519060200190611c859291906123a6565b50604082015181600201556060820151816003015560808201518160040160006101000a81548160ff02191690836004811115611ceb577f4e487b7100000000000000000000000000000000000000000000000000000000600052602160045260246000fd5b021790555060a08201518160040160016101000a81548160ff02191690836003811115611d41577f4e487b7100000000000000000000000000000000000000000000000000000000600052602160045260246000fd5b02179055509050507f0f61ee826cb499c21e666b2e406bd7914cc6b143913313a5d722a2a66bcd603b85856001604051611d7d93929190612ebe565b60405180910390a1611dc7565b7f0f61ee826cb499c21e666b2e406bd7914cc6b143913313a5d722a2a66bcd603b85856000604051611dbe93929190612ebe565b60405180910390a15b5050505050565b60007f01ffc9a7000000000000000000000000000000000000000000000000000000007bffffffffffffffffffffffffffffffffffffffffffffffffffffffff1916827bffffffffffffffffffffffffffffffffffffffffffffffffffffffff1916149050919050565b600033905090565b611e4a8282610d49565b611ed957611e6f8173ffffffffffffffffffffffffffffffffffffffff1660146120ac565b611e7d8360001c60206120ac565b604051602001611e8e929190612d16565b6040516020818303038152906040526040517f08c379a0000000000000000000000000000000000000000000000000000000008152600401611ed09190612dbd565b60405180910390fd5b5050565b611ee78282610d49565b611fb957600160008084815260200190815260200160002060000160008373ffffffffffffffffffffffffffffffffffffffff1673ffffffffffffffffffffffffffffffffffffffff16815260200190815260200160002060006101000a81548160ff021916908315150217905550611f5e611e38565b73ffffffffffffffffffffffffffffffffffffffff168173ffffffffffffffffffffffffffffffffffffffff16837f2f8788117e7eff1d82e926ec794901d17c78024a50270940304540a733656f0d60405160405180910390a45b5050565b611fc78282610d49565b1561209a57600080600084815260200190815260200160002060000160008373ffffffffffffffffffffffffffffffffffffffff1673ffffffffffffffffffffffffffffffffffffffff16815260200190815260200160002060006101000a81548160ff02191690831515021790555061203f611e38565b73ffffffffffffffffffffffffffffffffffffffff168173ffffffffffffffffffffffffffffffffffffffff16837ff6391f5c32d9c69d2a47ea670b442974b53935d1edc7fd64eb21e047a839171b60405160405180910390a45b5050565b6120a88282611edd565b5050565b6060600060028360026120bf9190613056565b6120c99190613000565b67ffffffffffffffff811115612108577f4e487b7100000000000000000000000000000000000000000000000000000000600052604160045260246000fd5b6040519080825280601f01601f19166020018201604052801561213a5781602001600182028036833780820191505090505b5090507f300000000000000000000000000000000000000000000000000000000000000081600081518110612198577f4e487b7100000000000000000000000000000000000000000000000000000000600052603260045260246000fd5b60200101907effffffffffffffffffffffffffffffffffffffffffffffffffffffffffffff1916908160001a9053507f780000000000000000000000000000000000000000000000000000000000000081600181518110612222577f4e487b7100000000000000000000000000000000000000000000000000000000600052603260045260246000fd5b60200101907effffffffffffffffffffffffffffffffffffffffffffffffffffffffffffff1916908160001a905350600060018460026122629190613056565b61226c9190613000565b90505b6001811115612358577f3031323334353637383961626364656600000000000000000000000000000000600f8616601081106122d4577f4e487b7100000000000000000000000000000000000000000000000000000000600052603260045260246000fd5b1a60f81b828281518110612311577f4e487b7100000000000000000000000000000000000000000000000000000000600052603260045260246000fd5b60200101907effffffffffffffffffffffffffffffffffffffffffffffffffffffffffffff1916908160001a905350600485901c945080612351906131c4565b905061226f565b506000841461239c576040517f08c379a000000000000000000000000000000000000000000000000000000000815260040161239390612ddf565b60405180910390fd5b8091505092915050565b8280546123b2906131ee565b90600052602060002090601f0160209004810192826123d4576000855561241b565b82601f106123ed57805160ff191683800117855561241b565b8280016001018555821561241b579182015b8281111561241a5782518255916020019190600101906123ff565b5b5090506124289190612587565b5090565b6040518060c00160405280600081526020016060815260200160008152602001600081526020016000600481111561248d577f4e487b7100000000000000000000000000000000000000000000000000000000600052602160045260246000fd5b8152602001600060038111156124cc577f4e487b7100000000000000000000000000000000000000000000000000000000600052602160045260246000fd5b81525090565b60405180610100016040528060008152602001606081526020016000815260200160008152602001600081526020016000815260200160006004811115612542577f4e487b7100000000000000000000000000000000000000000000000000000000600052602160045260246000fd5b815260200160006003811115612581577f4e487b7100000000000000000000000000000000000000000000000000000000600052602160045260246000fd5b81525090565b5b808211156125a0576000816000905550600101612588565b5090565b60006125b76125b284612f26565b612ef5565b9050828152602081018484840111156125cf57600080fd5b6125da848285613182565b509392505050565b6000813590506125f18161335e565b92915050565b60008135905061260681613375565b92915050565b60008135905061261b8161338c565b92915050565b600081359050612630816133a3565b92915050565b600081359050612645816133b3565b92915050565b600082601f83011261265c57600080fd5b813561266c8482602086016125a4565b91505092915050565b600081359050612684816133c3565b92915050565b60006020828403121561269c57600080fd5b60006126aa848285016125e2565b91505092915050565b6000602082840312156126c557600080fd5b60006126d3848285016125f7565b91505092915050565b600080604083850312156126ef57600080fd5b60006126fd858286016125f7565b925050602061270e858286016125e2565b9150509250929050565b60006020828403121561272a57600080fd5b60006127388482850161260c565b91505092915050565b6000806000806080858703121561275757600080fd5b600085013567ffffffffffffffff81111561277157600080fd5b61277d8782880161264b565b945050602061278e87828801612675565b935050604061279f87828801612636565b92505060606127b087828801612621565b91505092959194509250565b60008060008060008060c087890312156127d557600080fd5b600087013567ffffffffffffffff8111156127ef57600080fd5b6127fb89828a0161264b565b965050602061280c89828a01612675565b955050604061281d89828a01612675565b945050606061282e89828a01612675565b935050608061283f89828a01612636565b92505060a061285089828a01612621565b9150509295509295509295565b6000806040838503121561287057600080fd5b600061287e85828601612675565b925050602061288f85828601612675565b9150509250929050565b60006128a58383612bbf565b905092915050565b60006128b98383612c48565b905092915050565b60006128cc82612f76565b6128d68185612fb1565b9350836020820285016128e885612f56565b8060005b8581101561292457848403895281516129058582612899565b945061291083612f97565b925060208a019950506001810190506128ec565b50829750879550505050505092915050565b600061294182612f81565b61294b8185612fc2565b93508360208202850161295d85612f66565b8060005b85811015612999578484038952815161297a85826128ad565b945061298583612fa4565b925060208a01995050600181019050612961565b50829750879550505050505092915050565b6129b4816130c2565b82525050565b6129c3816130ce565b82525050565b6129d28161315e565b82525050565b6129e181613170565b82525050565b6129f08161312a565b82525050565b6000612a0182612f8c565b612a0b8185612fd3565b9350612a1b818560208601613191565b612a2481613325565b840191505092915050565b6000612a3a82612f8c565b612a448185612fe4565b9350612a54818560208601613191565b612a5d81613325565b840191505092915050565b6000612a7382612f8c565b612a7d8185612ff5565b9350612a8d818560208601613191565b80840191505092915050565b6000612aa6602083612fe4565b91507f537472696e67733a20686578206c656e67746820696e73756666696369656e746000830152602082019050919050565b6000612ae6601783612ff5565b91507f416363657373436f6e74726f6c3a206163636f756e74200000000000000000006000830152601782019050919050565b6000612b26601183612ff5565b91507f206973206d697373696e6720726f6c65200000000000000000000000000000006000830152601182019050919050565b6000612b66602f83612fe4565b91507f416363657373436f6e74726f6c3a2063616e206f6e6c792072656e6f756e636560008301527f20726f6c657320666f722073656c6600000000000000000000000000000000006020830152604082019050919050565b600060c083016000830151612bd76000860182612cf8565b5060208301518482036020860152612bef82826129f6565b9150506040830151612c0460408601826129e7565b506060830151612c176060860182612cf8565b506080830151612c2a60808601826129d8565b5060a0830151612c3d60a08601826129c9565b508091505092915050565b600061010083016000830151612c616000860182612cf8565b5060208301518482036020860152612c7982826129f6565b9150506040830151612c8e60408601826129e7565b506060830151612ca16060860182612cf8565b506080830151612cb46080860182612cf8565b5060a0830151612cc760a0860182612cf8565b5060c0830151612cda60c08601826129d8565b5060e0830151612ced60e08601826129c9565b508091505092915050565b612d0181613154565b82525050565b612d1081613154565b82525050565b6000612d2182612ad9565b9150612d2d8285612a68565b9150612d3882612b19565b9150612d448284612a68565b91508190509392505050565b60006040820190508181036000830152612d6a81856128c1565b90508181036020830152612d7e8184612936565b90509392505050565b6000602082019050612d9c60008301846129ab565b92915050565b6000602082019050612db760008301846129ba565b92915050565b60006020820190508181036000830152612dd78184612a2f565b905092915050565b60006020820190508181036000830152612df881612a99565b9050919050565b60006020820190508181036000830152612e1881612b59565b9050919050565b6000604082019050612e346000830185612d07565b612e4160208301846129ab565b9392505050565b600060c082019050612e5d6000830189612d07565b8181036020830152612e6f8188612a2f565b9050612e7e6040830187612d07565b8181036060830152612e908186612a2f565b90508181036080830152612ea48185612a2f565b9050612eb360a08301846129ab565b979650505050505050565b6000606082019050612ed36000830186612d07565b612ee06020830185612d07565b612eed60408301846129ab565b949350505050565b6000604051905081810181811067ffffffffffffffff82111715612f1c57612f1b6132f6565b5b8060405250919050565b600067ffffffffffffffff821115612f4157612f406132f6565b5b601f19601f8301169050602081019050919050565b6000819050602082019050919050565b6000819050602082019050919050565b600081519050919050565b600081519050919050565b600081519050919050565b6000602082019050919050565b6000602082019050919050565b600082825260208201905092915050565b600082825260208201905092915050565b600082825260208201905092915050565b600082825260208201905092915050565b600081905092915050565b600061300b82613154565b915061301683613154565b9250827fffffffffffffffffffffffffffffffffffffffffffffffffffffffffffffffff0382111561304b5761304a613269565b5b828201905092915050565b600061306182613154565b915061306c83613154565b9250817fffffffffffffffffffffffffffffffffffffffffffffffffffffffffffffffff04831182151516156130a5576130a4613269565b5b828202905092915050565b60006130bb82613134565b9050919050565b60008115159050919050565b6000819050919050565b60007fffffffff0000000000000000000000000000000000000000000000000000000082169050919050565b600081905061311282613336565b919050565b60008190506131258261334a565b919050565b6000819050919050565b600073ffffffffffffffffffffffffffffffffffffffff82169050919050565b6000819050919050565b600061316982613104565b9050919050565b600061317b82613117565b9050919050565b82818337600083830152505050565b60005b838110156131af578082015181840152602081019050613194565b838111156131be576000848401525b50505050565b60006131cf82613154565b915060008214156131e3576131e2613269565b5b600182039050919050565b6000600282049050600182168061320657607f821691505b6020821081141561321a576132196132c7565b5b50919050565b600061322b82613154565b91507fffffffffffffffffffffffffffffffffffffffffffffffffffffffffffffffff82141561325e5761325d613269565b5b600182019050919050565b7f4e487b7100000000000000000000000000000000000000000000000000000000600052601160045260246000fd5b7f4e487b7100000000000000000000000000000000000000000000000000000000600052602160045260246000fd5b7f4e487b7100000000000000000000000000000000000000000000000000000000600052602260045260246000fd5b7f4e487b7100000000000000000000000000000000000000000000000000000000600052604160045260246000fd5b6000601f19601f8301169050919050565b6004811061334757613346613298565b5b50565b6005811061335b5761335a613298565b5b50565b613367816130b0565b811461337257600080fd5b50565b61337e816130ce565b811461338957600080fd5b50565b613395816130d8565b81146133a057600080fd5b50565b600481106133b057600080fd5b50565b600581106133c057600080fd5b50565b6133cc81613154565b81146133d757600080fd5b5056fea2646970667358221220360bfc6f416b49cb4fc4576629b15e8503b44dd00878e3281b682828394d23a664736f6c63430008000033",
  "immutableReferences": {},
  "source": "// SPDX-License-Identifier: MIT\npragma solidity ^0.8.0;\n\nimport \"@openzeppelin/contracts/access/AccessControl.sol\";\n\ncontract Waitlist is AccessControl {\n\n  bytes32 public constant DOCTOR = keccak256(\"DOCTOR\");\n  bytes32 public constant DONOR = keccak256(\"DONOR\");\n\n  constructor (address doctor, address donor) public {\n    _setupRole(DEFAULT_ADMIN_ROLE, msg.sender);\n    _setupRole(DOCTOR, doctor);\n    _setupRole(DONOR, donor);\n  }\n\n\n  uint private recipient_counter = 0;\n  uint private donor_counter = 0;\n\n  enum Organ {\n      kidney,\n      liver,\n      lung,\n      pancreas,\n      intestine\n   }\n\n   enum BloodType {\n      A,\n      B,\n      AB,\n      O\n   }\n\n  struct Recipient {\n    uint id;\n    string name;\n    int256 donor_id;\n    uint severity;\n    uint score;\n    uint age;\n    Organ organ;\n    BloodType blood_type;\n  }\n\n  struct Donor {\n    uint id;\n    string name;\n    int256 recipient_id;\n    uint age;\n    Organ organ;\n    BloodType blood_type;\n  }\n\n  mapping(uint => Recipient) private waitlist;\n  mapping(uint => Donor) private donor_list;\n\n  event AddedToWaitlist(\n    uint patient_id,\n    bool in_list\n  );\n\n  event MatchedToDonor(\n    uint recipient_id,\n    uint donor_id,\n    bool success\n  );\n\n  event DonorRegistered(\n    uint donor_id,\n    string donor_name,\n    uint age,\n    string organ,\n    string blood_type,\n    bool matched\n  );\n\n  function grant_doctor_role(address doctor) public onlyRole(DEFAULT_ADMIN_ROLE) {\n    _setupRole(DOCTOR, doctor);\n  }\n\n  function grant_donor_role(address donor) public onlyRole(DEFAULT_ADMIN_ROLE) {\n    _setupRole(DONOR, donor);\n  }\n\n  function get_waitlist() public onlyRole(DOCTOR) returns (Donor[] memory, Recipient[] memory) {\n    Donor[] memory donors = new Donor[](donor_counter);\n    Recipient[] memory patients = new Recipient[](recipient_counter);\n\n    for (uint i = 0; i < donor_counter; i++) {\n      Donor storage donor = donor_list[i];\n      donors[i] = donor;\n    }\n\n    for (uint j = 0; j < recipient_counter; j++) {\n      Recipient storage patient = waitlist[j];\n      patients[j] = patient;\n    }\n\n    return (donors, patients);\n  } \n\n  function queue_recipient(string memory _name, uint _severity, uint _score, uint _age, Organ _organ, BloodType _blood_type) public onlyRole(DOCTOR) {\n    waitlist[recipient_counter] = Recipient(recipient_counter, _name, -1,  _severity, _score, _age, _organ, _blood_type);\n    recipient_counter++;\n    emit AddedToWaitlist(recipient_counter, true);\n  }\n\n  function match_donor(uint _recipient_id, uint _donor_id) public onlyRole(DOCTOR) {\n    Recipient memory _recipient = waitlist[_recipient_id];\n    Donor memory _donor = donor_list[_donor_id];\n\n    if (_recipient.donor_id == -1 && _donor.recipient_id == -1) {\n      _recipient.donor_id = int256(_donor_id);\n      _donor.recipient_id = int256(_recipient_id);\n\n      waitlist[_recipient_id] = _recipient;\n      donor_list[_donor_id] = _donor;\n\n      emit MatchedToDonor(_recipient_id, _donor_id, true);\n    } else {\n      emit MatchedToDonor(_recipient_id, _donor_id, false);\n    }\n  }\n\n  function register_donor(string memory _name, uint _age, Organ _organ, BloodType _blood_type) public onlyRole(DONOR) {\n    donor_list[donor_counter] = Donor(donor_counter, _name, -1, _age, _organ, _blood_type);\n    donor_counter++;\n\n    string memory _organ_name = \"\";\n    string memory _blood = \"\";\n\n    if (_organ == Organ.kidney ) {\n      _organ_name = \"kidney\";\n    } else if (_organ == Organ.liver ) {\n      _organ_name = \"liver\";\n    } else if (_organ == Organ.lung ) {\n      _organ_name = \"lung\";\n    } else if (_organ == Organ.pancreas ) {\n      _organ_name = \"pancreas\";\n    } else if (_organ == Organ.intestine ) {\n      _organ_name = \"intestine\";\n    } \n\n    if (_blood_type == BloodType.A ) {\n      _blood = \"A\";\n    } else if (_blood_type == BloodType.B ) {\n      _blood = \"B\";\n    } else if (_blood_type == BloodType.AB ) {\n      _blood = \"AB\";\n    } else if (_blood_type == BloodType.O ) {\n      _blood = \"O\";\n    }\n\n    emit DonorRegistered(donor_counter, _name, _age, _organ_name, _blood, false);\n  }\n}",
  "sourcePath": "/home/richardr2926/Desktop/organ_lock/blockchain/contracts/Waitlist.sol",
  "compiler": {
    "name": "solc",
    "version": "0.8.0+commit.c7dfd78e.Emscripten.clang"
  },
  "schemaVersion": "3.4.5",
  "updatedAt": "2022-03-05T18:20:21.760Z",
  "networkType": "ethereum",
  "devdoc": {
    "kind": "dev",
    "methods": {
      "getRoleAdmin(bytes32)": {
        "details": "Returns the admin role that controls `role`. See {grantRole} and {revokeRole}. To change a role's admin, use {_setRoleAdmin}."
      },
      "grantRole(bytes32,address)": {
        "details": "Grants `role` to `account`. If `account` had not been already granted `role`, emits a {RoleGranted} event. Requirements: - the caller must have ``role``'s admin role."
      },
      "hasRole(bytes32,address)": {
        "details": "Returns `true` if `account` has been granted `role`."
      },
      "renounceRole(bytes32,address)": {
        "details": "Revokes `role` from the calling account. Roles are often managed via {grantRole} and {revokeRole}: this function's purpose is to provide a mechanism for accounts to lose their privileges if they are compromised (such as when a trusted device is misplaced). If the calling account had been revoked `role`, emits a {RoleRevoked} event. Requirements: - the caller must be `account`."
      },
      "revokeRole(bytes32,address)": {
        "details": "Revokes `role` from `account`. If `account` had been granted `role`, emits a {RoleRevoked} event. Requirements: - the caller must have ``role``'s admin role."
      },
      "supportsInterface(bytes4)": {
        "details": "See {IERC165-supportsInterface}."
      }
    },
    "version": 1
  },
  "userdoc": {
    "kind": "user",
    "methods": {},
    "version": 1
  }
}