{
  "contractName": "Waitlist",
  "abi": [
    {
      "inputs": [
        {
          "internalType": "address",
          "name": "doctor",
          "type": "address"
        },
        {
          "internalType": "address",
          "name": "donor",
          "type": "address"
        }
      ],
      "stateMutability": "nonpayable",
      "type": "constructor"
    },
    {
      "anonymous": false,
      "inputs": [
        {
          "indexed": false,
          "internalType": "uint256",
          "name": "patient_id",
          "type": "uint256"
        },
        {
          "indexed": false,
          "internalType": "string",
          "name": "patient_name",
          "type": "string"
        },
        {
          "indexed": false,
          "internalType": "uint256",
          "name": "patient_age",
          "type": "uint256"
        },
        {
          "indexed": false,
          "internalType": "uint256",
          "name": "patient_severity",
          "type": "uint256"
        },
        {
          "indexed": false,
          "internalType": "uint256",
          "name": "patient_score",
          "type": "uint256"
        },
        {
          "indexed": false,
          "internalType": "string",
          "name": "organ",
          "type": "string"
        },
        {
          "indexed": false,
          "internalType": "string",
          "name": "blood_type",
          "type": "string"
        }
      ],
      "name": "AddedToWaitlist",
      "type": "event"
    },
    {
      "anonymous": false,
      "inputs": [
        {
          "indexed": false,
          "internalType": "uint256",
          "name": "donor_id",
          "type": "uint256"
        },
        {
          "indexed": false,
          "internalType": "string",
          "name": "donor_name",
          "type": "string"
        },
        {
          "indexed": false,
          "internalType": "uint256",
          "name": "age",
          "type": "uint256"
        },
        {
          "indexed": false,
          "internalType": "string",
          "name": "organ",
          "type": "string"
        },
        {
          "indexed": false,
          "internalType": "string",
          "name": "blood_type",
          "type": "string"
        }
      ],
      "name": "DonorRegistered",
      "type": "event"
    },
    {
      "anonymous": false,
      "inputs": [
        {
          "indexed": false,
          "internalType": "uint256",
          "name": "recipient_id",
          "type": "uint256"
        },
        {
          "indexed": false,
          "internalType": "string",
          "name": "recipient_name",
          "type": "string"
        },
        {
          "indexed": false,
          "internalType": "uint256",
          "name": "donor_id",
          "type": "uint256"
        },
        {
          "indexed": false,
          "internalType": "string",
          "name": "donor_name",
          "type": "string"
        },
        {
          "indexed": false,
          "internalType": "bool",
          "name": "success",
          "type": "bool"
        }
      ],
      "name": "MatchedToDonor",
      "type": "event"
    },
    {
      "anonymous": false,
      "inputs": [
        {
          "indexed": true,
          "internalType": "bytes32",
          "name": "role",
          "type": "bytes32"
        },
        {
          "indexed": true,
          "internalType": "bytes32",
          "name": "previousAdminRole",
          "type": "bytes32"
        },
        {
          "indexed": true,
          "internalType": "bytes32",
          "name": "newAdminRole",
          "type": "bytes32"
        }
      ],
      "name": "RoleAdminChanged",
      "type": "event"
    },
    {
      "anonymous": false,
      "inputs": [
        {
          "indexed": true,
          "internalType": "bytes32",
          "name": "role",
          "type": "bytes32"
        },
        {
          "indexed": true,
          "internalType": "address",
          "name": "account",
          "type": "address"
        },
        {
          "indexed": true,
          "internalType": "address",
          "name": "sender",
          "type": "address"
        }
      ],
      "name": "RoleGranted",
      "type": "event"
    },
    {
      "anonymous": false,
      "inputs": [
        {
          "indexed": true,
          "internalType": "bytes32",
          "name": "role",
          "type": "bytes32"
        },
        {
          "indexed": true,
          "internalType": "address",
          "name": "account",
          "type": "address"
        },
        {
          "indexed": true,
          "internalType": "address",
          "name": "sender",
          "type": "address"
        }
      ],
      "name": "RoleRevoked",
      "type": "event"
    },
    {
      "inputs": [],
      "name": "DEFAULT_ADMIN_ROLE",
      "outputs": [
        {
          "internalType": "bytes32",
          "name": "",
          "type": "bytes32"
        }
      ],
      "stateMutability": "view",
      "type": "function",
      "constant": true
    },
    {
      "inputs": [],
      "name": "DOCTOR",
      "outputs": [
        {
          "internalType": "bytes32",
          "name": "",
          "type": "bytes32"
        }
      ],
      "stateMutability": "view",
      "type": "function",
      "constant": true
    },
    {
      "inputs": [],
      "name": "DONOR",
      "outputs": [
        {
          "internalType": "bytes32",
          "name": "",
          "type": "bytes32"
        }
      ],
      "stateMutability": "view",
      "type": "function",
      "constant": true
    },
    {
      "inputs": [
        {
          "internalType": "bytes32",
          "name": "role",
          "type": "bytes32"
        }
      ],
      "name": "getRoleAdmin",
      "outputs": [
        {
          "internalType": "bytes32",
          "name": "",
          "type": "bytes32"
        }
      ],
      "stateMutability": "view",
      "type": "function",
      "constant": true
    },
    {
      "inputs": [
        {
          "internalType": "bytes32",
          "name": "role",
          "type": "bytes32"
        },
        {
          "internalType": "address",
          "name": "account",
          "type": "address"
        }
      ],
      "name": "grantRole",
      "outputs": [],
      "stateMutability": "nonpayable",
      "type": "function"
    },
    {
      "inputs": [
        {
          "internalType": "bytes32",
          "name": "role",
          "type": "bytes32"
        },
        {
          "internalType": "address",
          "name": "account",
          "type": "address"
        }
      ],
      "name": "hasRole",
      "outputs": [
        {
          "internalType": "bool",
          "name": "",
          "type": "bool"
        }
      ],
      "stateMutability": "view",
      "type": "function",
      "constant": true
    },
    {
      "inputs": [
        {
          "internalType": "bytes32",
          "name": "role",
          "type": "bytes32"
        },
        {
          "internalType": "address",
          "name": "account",
          "type": "address"
        }
      ],
      "name": "renounceRole",
      "outputs": [],
      "stateMutability": "nonpayable",
      "type": "function"
    },
    {
      "inputs": [
        {
          "internalType": "bytes32",
          "name": "role",
          "type": "bytes32"
        },
        {
          "internalType": "address",
          "name": "account",
          "type": "address"
        }
      ],
      "name": "revokeRole",
      "outputs": [],
      "stateMutability": "nonpayable",
      "type": "function"
    },
    {
      "inputs": [
        {
          "internalType": "bytes4",
          "name": "interfaceId",
          "type": "bytes4"
        }
      ],
      "name": "supportsInterface",
      "outputs": [
        {
          "internalType": "bool",
          "name": "",
          "type": "bool"
        }
      ],
      "stateMutability": "view",
      "type": "function",
      "constant": true
    },
    {
      "inputs": [
        {
          "internalType": "address",
          "name": "doctor",
          "type": "address"
        }
      ],
      "name": "grant_doctor_role",
      "outputs": [],
      "stateMutability": "nonpayable",
      "type": "function"
    },
    {
      "inputs": [
        {
          "internalType": "address",
          "name": "donor",
          "type": "address"
        }
      ],
      "name": "grant_donor_role",
      "outputs": [],
      "stateMutability": "nonpayable",
      "type": "function"
    },
    {
      "inputs": [],
      "name": "get_waitlist",
      "outputs": [
        {
          "components": [
            {
              "internalType": "uint256",
              "name": "id",
              "type": "uint256"
            },
            {
              "internalType": "string",
              "name": "name",
              "type": "string"
            },
            {
              "internalType": "int256",
              "name": "recipient_id",
              "type": "int256"
            },
            {
              "internalType": "uint256",
              "name": "age",
              "type": "uint256"
            },
            {
              "internalType": "enum Waitlist.Organ",
              "name": "organ",
              "type": "uint8"
            },
            {
              "internalType": "enum Waitlist.BloodType",
              "name": "blood_type",
              "type": "uint8"
            }
          ],
          "internalType": "struct Waitlist.Donor[]",
          "name": "",
          "type": "tuple[]"
        },
        {
          "components": [
            {
              "internalType": "uint256",
              "name": "id",
              "type": "uint256"
            },
            {
              "internalType": "string",
              "name": "name",
              "type": "string"
            },
            {
              "internalType": "int256",
              "name": "donor_id",
              "type": "int256"
            },
            {
              "internalType": "uint256",
              "name": "severity",
              "type": "uint256"
            },
            {
              "internalType": "uint256",
              "name": "score",
              "type": "uint256"
            },
            {
              "internalType": "uint256",
              "name": "age",
              "type": "uint256"
            },
            {
              "internalType": "enum Waitlist.Organ",
              "name": "organ",
              "type": "uint8"
            },
            {
              "internalType": "enum Waitlist.BloodType",
              "name": "blood_type",
              "type": "uint8"
            }
          ],
          "internalType": "struct Waitlist.Recipient[]",
          "name": "",
          "type": "tuple[]"
        }
      ],
      "stateMutability": "nonpayable",
      "type": "function"
    },
    {
      "inputs": [
        {
          "internalType": "string",
          "name": "_name",
          "type": "string"
        },
        {
          "internalType": "uint256",
          "name": "_severity",
          "type": "uint256"
        },
        {
          "internalType": "uint256",
          "name": "_score",
          "type": "uint256"
        },
        {
          "internalType": "uint256",
          "name": "_age",
          "type": "uint256"
        },
        {
          "internalType": "enum Waitlist.Organ",
          "name": "_organ",
          "type": "uint8"
        },
        {
          "internalType": "enum Waitlist.BloodType",
          "name": "_blood_type",
          "type": "uint8"
        }
      ],
      "name": "queue_recipient",
      "outputs": [],
      "stateMutability": "nonpayable",
      "type": "function"
    },
    {
      "inputs": [
        {
          "internalType": "uint256",
          "name": "_recipient_id",
          "type": "uint256"
        },
        {
          "internalType": "uint256",
          "name": "_donor_id",
          "type": "uint256"
        }
      ],
      "name": "match_donor",
      "outputs": [],
      "stateMutability": "nonpayable",
      "type": "function"
    },
    {
      "inputs": [
        {
          "internalType": "string",
          "name": "_name",
          "type": "string"
        },
        {
          "internalType": "uint256",
          "name": "_age",
          "type": "uint256"
        },
        {
          "internalType": "enum Waitlist.Organ",
          "name": "_organ",
          "type": "uint8"
        },
        {
          "internalType": "enum Waitlist.BloodType",
          "name": "_blood_type",
          "type": "uint8"
        }
      ],
      "name": "register_donor",
      "outputs": [],
      "stateMutability": "nonpayable",
      "type": "function"
    }
  ],
  "bytecode": "0x6080604052600060015560006002553480156200001b57600080fd5b5060405162003e8738038062003e878339818101604052810190620000419190620002b6565b620000566000801b336200012660201b60201c565b620000887fc9c8e67a61d2e7371df46522b44051b955c16bf4b713ef44e1373b25bfcd80b2336200012660201b60201c565b620000ba7f7220c8c83db3df705edc2f907812addbce8b70b5f7208909f67735d3cf5ad727336200012660201b60201c565b620000ec7fc9c8e67a61d2e7371df46522b44051b955c16bf4b713ef44e1373b25bfcd80b2836200012660201b60201c565b6200011e7f7220c8c83db3df705edc2f907812addbce8b70b5f7208909f67735d3cf5ad727826200012660201b60201c565b505062000345565b6200013882826200013c60201b60201c565b5050565b6200014e82826200022d60201b60201c565b6200022957600160008084815260200190815260200160002060000160008373ffffffffffffffffffffffffffffffffffffffff1673ffffffffffffffffffffffffffffffffffffffff16815260200190815260200160002060006101000a81548160ff021916908315150217905550620001ce6200029760201b60201c565b73ffffffffffffffffffffffffffffffffffffffff168173ffffffffffffffffffffffffffffffffffffffff16837f2f8788117e7eff1d82e926ec794901d17c78024a50270940304540a733656f0d60405160405180910390a45b5050565b600080600084815260200190815260200160002060000160008373ffffffffffffffffffffffffffffffffffffffff1673ffffffffffffffffffffffffffffffffffffffff16815260200190815260200160002060009054906101000a900460ff16905092915050565b600033905090565b600081519050620002b0816200032b565b92915050565b60008060408385031215620002ca57600080fd5b6000620002da858286016200029f565b9250506020620002ed858286016200029f565b9150509250929050565b600062000304826200030b565b9050919050565b600073ffffffffffffffffffffffffffffffffffffffff82169050919050565b6200033681620002f7565b81146200034257600080fd5b50565b613b3280620003556000396000f3fe608060405234801561001057600080fd5b50600436106100f55760003560e01c80634576d25111610097578063a217fddf11610066578063a217fddf14610271578063cf9bd03c1461028f578063d547741f146102ab578063e683377d146102c7576100f5565b80634576d251146101eb5780635c5afb31146102095780637a245e811461022557806391d1485414610241576100f5565b80632efbdf82116100d35780632efbdf82146101765780632f2ff15d1461019457806336568abe146101b05780633f4d12ac146101cc576100f5565b806301ffc9a7146100fa578063248a9ca31461012a5780632b15d2751461015a575b600080fd5b610114600480360381019061010f9190612dc3565b6102e3565b6040516101219190613432565b60405180910390f35b610144600480360381019061013f9190612d5e565b61035d565b604051610151919061344d565b60405180910390f35b610174600480360381019061016f9190612e67565b61037c565b005b61017e610c80565b60405161018b919061344d565b60405180910390f35b6101ae60048036038101906101a99190612d87565b610ca4565b005b6101ca60048036038101906101c59190612d87565b610ccd565b005b6101d4610d50565b6040516101e29291906133fb565b60405180910390f35b6101f3611335565b604051610200919061344d565b60405180910390f35b610223600480360381019061021e9190612d35565b611359565b005b61023f600480360381019061023a9190612d35565b61139c565b005b61025b60048036038101906102569190612d87565b6113df565b6040516102689190613432565b60405180910390f35b610279611449565b604051610286919061344d565b60405180910390f35b6102a960048036038101906102a49190612dec565b611450565b005b6102c560048036038101906102c09190612d87565b611d2d565b005b6102e160048036038101906102dc9190612f08565b611d56565b005b60007f7965db0b000000000000000000000000000000000000000000000000000000007bffffffffffffffffffffffffffffffffffffffffffffffffffffffff1916827bffffffffffffffffffffffffffffffffffffffffffffffffffffffff19161480610356575061035582612479565b5b9050919050565b6000806000838152602001908152602001600020600101549050919050565b7fc9c8e67a61d2e7371df46522b44051b955c16bf4b713ef44e1373b25bfcd80b26103ae816103a96124e3565b6124eb565b60405180610100016040528060015481526020018881526020017fffffffffffffffffffffffffffffffffffffffffffffffffffffffffffffffff8152602001878152602001868152602001858152602001846004811115610439577f4e487b7100000000000000000000000000000000000000000000000000000000600052602160045260246000fd5b8152602001836003811115610477577f4e487b7100000000000000000000000000000000000000000000000000000000600052602160045260246000fd5b8152506003600060015481526020019081526020016000206000820151816000015560208201518160010190805190602001906104b5929190612a51565b5060408201518160020155606082015181600301556080820151816004015560a0820151816005015560c08201518160060160006101000a81548160ff0219169083600481111561052f577f4e487b7100000000000000000000000000000000000000000000000000000000600052602160045260246000fd5b021790555060e08201518160060160016101000a81548160ff02191690836003811115610585577f4e487b7100000000000000000000000000000000000000000000000000000000600052602160045260246000fd5b021790555090505060006040518060200160405280600081525090506000604051806020016040528060008152509050600060048111156105ef577f4e487b7100000000000000000000000000000000000000000000000000000000600052602160045260246000fd5b856004811115610628577f4e487b7100000000000000000000000000000000000000000000000000000000600052602160045260246000fd5b141561066b576040518060400160405280600681526020017f6b69646e657900000000000000000000000000000000000000000000000000008152509150610942565b600160048111156106a5577f4e487b7100000000000000000000000000000000000000000000000000000000600052602160045260246000fd5b8560048111156106de577f4e487b7100000000000000000000000000000000000000000000000000000000600052602160045260246000fd5b1415610721576040518060400160405280600581526020017f6c697665720000000000000000000000000000000000000000000000000000008152509150610941565b6002600481111561075b577f4e487b7100000000000000000000000000000000000000000000000000000000600052602160045260246000fd5b856004811115610794577f4e487b7100000000000000000000000000000000000000000000000000000000600052602160045260246000fd5b14156107d7576040518060400160405280600481526020017f6c756e67000000000000000000000000000000000000000000000000000000008152509150610940565b60036004811115610811577f4e487b7100000000000000000000000000000000000000000000000000000000600052602160045260246000fd5b85600481111561084a577f4e487b7100000000000000000000000000000000000000000000000000000000600052602160045260246000fd5b141561088d576040518060400160405280600881526020017f70616e6372656173000000000000000000000000000000000000000000000000815250915061093f565b6004808111156108c6577f4e487b7100000000000000000000000000000000000000000000000000000000600052602160045260246000fd5b8560048111156108ff577f4e487b7100000000000000000000000000000000000000000000000000000000600052602160045260246000fd5b141561093e576040518060400160405280600981526020017f696e74657374696e65000000000000000000000000000000000000000000000081525091505b5b5b5b5b6000600381111561097c577f4e487b7100000000000000000000000000000000000000000000000000000000600052602160045260246000fd5b8460038111156109b5577f4e487b7100000000000000000000000000000000000000000000000000000000600052602160045260246000fd5b14156109f8576040518060400160405280600181526020017f41000000000000000000000000000000000000000000000000000000000000008152509050610c18565b60016003811115610a32577f4e487b7100000000000000000000000000000000000000000000000000000000600052602160045260246000fd5b846003811115610a6b577f4e487b7100000000000000000000000000000000000000000000000000000000600052602160045260246000fd5b1415610aae576040518060400160405280600181526020017f42000000000000000000000000000000000000000000000000000000000000008152509050610c17565b60026003811115610ae8577f4e487b7100000000000000000000000000000000000000000000000000000000600052602160045260246000fd5b846003811115610b21577f4e487b7100000000000000000000000000000000000000000000000000000000600052602160045260246000fd5b1415610b64576040518060400160405280600281526020017f41420000000000000000000000000000000000000000000000000000000000008152509050610c16565b600380811115610b9d577f4e487b7100000000000000000000000000000000000000000000000000000000600052602160045260246000fd5b846003811115610bd6577f4e487b7100000000000000000000000000000000000000000000000000000000600052602160045260246000fd5b1415610c15576040518060400160405280600181526020017f4f0000000000000000000000000000000000000000000000000000000000000081525090505b5b5b5b7f9d0fceedcf2ce4add15b812bd731a0dc07808ede6379ad154251327147562df86001548a888b8b8787604051610c559796959493929190613593565b60405180910390a160016000815480929190610c7090613942565b9190505550505050505050505050565b7fc9c8e67a61d2e7371df46522b44051b955c16bf4b713ef44e1373b25bfcd80b281565b610cad8261035d565b610cbe81610cb96124e3565b6124eb565b610cc88383612588565b505050565b610cd56124e3565b73ffffffffffffffffffffffffffffffffffffffff168173ffffffffffffffffffffffffffffffffffffffff1614610d42576040517f08c379a0000000000000000000000000000000000000000000000000000000008152600401610d39906134aa565b60405180910390fd5b610d4c8282612668565b5050565b6060807fc9c8e67a61d2e7371df46522b44051b955c16bf4b713ef44e1373b25bfcd80b2610d8581610d806124e3565b6124eb565b600060025467ffffffffffffffff811115610dc9577f4e487b7100000000000000000000000000000000000000000000000000000000600052604160045260246000fd5b604051908082528060200260200182016040528015610e0257816020015b610def612ad7565b815260200190600190039081610de75790505b509050600060015467ffffffffffffffff811115610e49577f4e487b7100000000000000000000000000000000000000000000000000000000600052604160045260246000fd5b604051908082528060200260200182016040528015610e8257816020015b610e6f612b7d565b815260200190600190039081610e675790505b50905060005b6002548110156110cb576000600460008381526020019081526020016000209050806040518060c001604052908160008201548152602001600182018054610ecf90613910565b80601f0160208091040260200160405190810160405280929190818152602001828054610efb90613910565b8015610f485780601f10610f1d57610100808354040283529160200191610f48565b820191906000526020600020905b815481529060010190602001808311610f2b57829003601f168201915b5050505050815260200160028201548152602001600382015481526020016004820160009054906101000a900460ff166004811115610fb0577f4e487b7100000000000000000000000000000000000000000000000000000000600052602160045260246000fd5b6004811115610fe8577f4e487b7100000000000000000000000000000000000000000000000000000000600052602160045260246000fd5b81526020016004820160019054906101000a900460ff166003811115611037577f4e487b7100000000000000000000000000000000000000000000000000000000600052602160045260246000fd5b600381111561106f577f4e487b7100000000000000000000000000000000000000000000000000000000600052602160045260246000fd5b815250508483815181106110ac577f4e487b7100000000000000000000000000000000000000000000000000000000600052603260045260246000fd5b60200260200101819052505080806110c390613942565b915050610e88565b5060005b60015481101561132757600060036000838152602001908152602001600020905080604051806101000160405290816000820154815260200160018201805461111790613910565b80601f016020809104026020016040519081016040528092919081815260200182805461114390613910565b80156111905780601f1061116557610100808354040283529160200191611190565b820191906000526020600020905b81548152906001019060200180831161117357829003601f168201915b50505050508152602001600282015481526020016003820154815260200160048201548152602001600582015481526020016006820160009054906101000a900460ff16600481111561120c577f4e487b7100000000000000000000000000000000000000000000000000000000600052602160045260246000fd5b6004811115611244577f4e487b7100000000000000000000000000000000000000000000000000000000600052602160045260246000fd5b81526020016006820160019054906101000a900460ff166003811115611293577f4e487b7100000000000000000000000000000000000000000000000000000000600052602160045260246000fd5b60038111156112cb577f4e487b7100000000000000000000000000000000000000000000000000000000600052602160045260246000fd5b81525050838381518110611308577f4e487b7100000000000000000000000000000000000000000000000000000000600052603260045260246000fd5b602002602001018190525050808061131f90613942565b9150506110cf565b508181945094505050509091565b7f7220c8c83db3df705edc2f907812addbce8b70b5f7208909f67735d3cf5ad72781565b6000801b61136e816113696124e3565b6124eb565b6113987fc9c8e67a61d2e7371df46522b44051b955c16bf4b713ef44e1373b25bfcd80b283612749565b5050565b6000801b6113b1816113ac6124e3565b6124eb565b6113db7f7220c8c83db3df705edc2f907812addbce8b70b5f7208909f67735d3cf5ad72783612749565b5050565b600080600084815260200190815260200160002060000160008373ffffffffffffffffffffffffffffffffffffffff1673ffffffffffffffffffffffffffffffffffffffff16815260200190815260200160002060009054906101000a900460ff16905092915050565b6000801b81565b7f7220c8c83db3df705edc2f907812addbce8b70b5f7208909f67735d3cf5ad7276114828161147d6124e3565b6124eb565b6040518060c0016040528060025481526020018681526020017fffffffffffffffffffffffffffffffffffffffffffffffffffffffffffffffff8152602001858152602001846004811115611500577f4e487b7100000000000000000000000000000000000000000000000000000000600052602160045260246000fd5b815260200183600381111561153e577f4e487b7100000000000000000000000000000000000000000000000000000000600052602160045260246000fd5b81525060046000600254815260200190815260200160002060008201518160000155602082015181600101908051906020019061157c929190612a51565b50604082015181600201556060820151816003015560808201518160040160006101000a81548160ff021916908360048111156115e2577f4e487b7100000000000000000000000000000000000000000000000000000000600052602160045260246000fd5b021790555060a08201518160040160016101000a81548160ff02191690836003811115611638577f4e487b7100000000000000000000000000000000000000000000000000000000600052602160045260246000fd5b02179055509050506002600081548092919061165390613942565b919050555060006040518060200160405280600081525090506000604051806020016040528060008152509050600060048111156116ba577f4e487b7100000000000000000000000000000000000000000000000000000000600052602160045260246000fd5b8560048111156116f3577f4e487b7100000000000000000000000000000000000000000000000000000000600052602160045260246000fd5b1415611736576040518060400160405280600681526020017f6b69646e657900000000000000000000000000000000000000000000000000008152509150611a0d565b60016004811115611770577f4e487b7100000000000000000000000000000000000000000000000000000000600052602160045260246000fd5b8560048111156117a9577f4e487b7100000000000000000000000000000000000000000000000000000000600052602160045260246000fd5b14156117ec576040518060400160405280600581526020017f6c697665720000000000000000000000000000000000000000000000000000008152509150611a0c565b60026004811115611826577f4e487b7100000000000000000000000000000000000000000000000000000000600052602160045260246000fd5b85600481111561185f577f4e487b7100000000000000000000000000000000000000000000000000000000600052602160045260246000fd5b14156118a2576040518060400160405280600481526020017f6c756e67000000000000000000000000000000000000000000000000000000008152509150611a0b565b600360048111156118dc577f4e487b7100000000000000000000000000000000000000000000000000000000600052602160045260246000fd5b856004811115611915577f4e487b7100000000000000000000000000000000000000000000000000000000600052602160045260246000fd5b1415611958576040518060400160405280600881526020017f70616e63726561730000000000000000000000000000000000000000000000008152509150611a0a565b600480811115611991577f4e487b7100000000000000000000000000000000000000000000000000000000600052602160045260246000fd5b8560048111156119ca577f4e487b7100000000000000000000000000000000000000000000000000000000600052602160045260246000fd5b1415611a09576040518060400160405280600981526020017f696e74657374696e65000000000000000000000000000000000000000000000081525091505b5b5b5b5b60006003811115611a47577f4e487b7100000000000000000000000000000000000000000000000000000000600052602160045260246000fd5b846003811115611a80577f4e487b7100000000000000000000000000000000000000000000000000000000600052602160045260246000fd5b1415611ac3576040518060400160405280600181526020017f41000000000000000000000000000000000000000000000000000000000000008152509050611ce3565b60016003811115611afd577f4e487b7100000000000000000000000000000000000000000000000000000000600052602160045260246000fd5b846003811115611b36577f4e487b7100000000000000000000000000000000000000000000000000000000600052602160045260246000fd5b1415611b79576040518060400160405280600181526020017f42000000000000000000000000000000000000000000000000000000000000008152509050611ce2565b60026003811115611bb3577f4e487b7100000000000000000000000000000000000000000000000000000000600052602160045260246000fd5b846003811115611bec577f4e487b7100000000000000000000000000000000000000000000000000000000600052602160045260246000fd5b1415611c2f576040518060400160405280600281526020017f41420000000000000000000000000000000000000000000000000000000000008152509050611ce1565b600380811115611c68577f4e487b7100000000000000000000000000000000000000000000000000000000600052602160045260246000fd5b846003811115611ca1577f4e487b7100000000000000000000000000000000000000000000000000000000600052602160045260246000fd5b1415611ce0576040518060400160405280600181526020017f4f0000000000000000000000000000000000000000000000000000000000000081525090505b5b5b5b7fd3a7ce09ea664554386496caa164556326aa473e8ceef10d64ea5b9da624d60e60025488888585604051611d1c95949392919061352b565b60405180910390a150505050505050565b611d368261035d565b611d4781611d426124e3565b6124eb565b611d518383612668565b505050565b7fc9c8e67a61d2e7371df46522b44051b955c16bf4b713ef44e1373b25bfcd80b2611d8881611d836124e3565b6124eb565b6000600360008581526020019081526020016000206040518061010001604052908160008201548152602001600182018054611dc390613910565b80601f0160208091040260200160405190810160405280929190818152602001828054611def90613910565b8015611e3c5780601f10611e1157610100808354040283529160200191611e3c565b820191906000526020600020905b815481529060010190602001808311611e1f57829003601f168201915b50505050508152602001600282015481526020016003820154815260200160048201548152602001600582015481526020016006820160009054906101000a900460ff166004811115611eb8577f4e487b7100000000000000000000000000000000000000000000000000000000600052602160045260246000fd5b6004811115611ef0577f4e487b7100000000000000000000000000000000000000000000000000000000600052602160045260246000fd5b81526020016006820160019054906101000a900460ff166003811115611f3f577f4e487b7100000000000000000000000000000000000000000000000000000000600052602160045260246000fd5b6003811115611f77577f4e487b7100000000000000000000000000000000000000000000000000000000600052602160045260246000fd5b8152505090506000600460008581526020019081526020016000206040518060c001604052908160008201548152602001600182018054611fb790613910565b80601f0160208091040260200160405190810160405280929190818152602001828054611fe390613910565b80156120305780601f1061200557610100808354040283529160200191612030565b820191906000526020600020905b81548152906001019060200180831161201357829003601f168201915b5050505050815260200160028201548152602001600382015481526020016004820160009054906101000a900460ff166004811115612098577f4e487b7100000000000000000000000000000000000000000000000000000000600052602160045260246000fd5b60048111156120d0577f4e487b7100000000000000000000000000000000000000000000000000000000600052602160045260246000fd5b81526020016004820160019054906101000a900460ff16600381111561211f577f4e487b7100000000000000000000000000000000000000000000000000000000600052602160045260246000fd5b6003811115612157577f4e487b7100000000000000000000000000000000000000000000000000000000600052602160045260246000fd5b8152505090507fffffffffffffffffffffffffffffffffffffffffffffffffffffffffffffffff82604001511480156121b357507fffffffffffffffffffffffffffffffffffffffffffffffffffffffffffffffff8160400151145b156124295783826040018181525050848160400181815250508160036000878152602001908152602001600020600082015181600001556020820151816001019080519060200190612206929190612a51565b5060408201518160020155606082015181600301556080820151816004015560a0820151816005015560c08201518160060160006101000a81548160ff02191690836004811115612280577f4e487b7100000000000000000000000000000000000000000000000000000000600052602160045260246000fd5b021790555060e08201518160060160016101000a81548160ff021916908360038111156122d6577f4e487b7100000000000000000000000000000000000000000000000000000000600052602160045260246000fd5b02179055509050508060046000868152602001908152602001600020600082015181600001556020820151816001019080519060200190612318929190612a51565b50604082015181600201556060820151816003015560808201518160040160006101000a81548160ff0219169083600481111561237e577f4e487b7100000000000000000000000000000000000000000000000000000000600052602160045260246000fd5b021790555060a08201518160040160016101000a81548160ff021916908360038111156123d4577f4e487b7100000000000000000000000000000000000000000000000000000000600052602160045260246000fd5b02179055509050507fdf57aff870be7115686499ac8351fbfa39e747e14a14a7e43f65b729802792b5858360200151868460200151600160405161241c9594939291906134ca565b60405180910390a1612472565b7fdf57aff870be7115686499ac8351fbfa39e747e14a14a7e43f65b729802792b585836020015186846020015160006040516124699594939291906134ca565b60405180910390a15b5050505050565b60007f01ffc9a7000000000000000000000000000000000000000000000000000000007bffffffffffffffffffffffffffffffffffffffffffffffffffffffff1916827bffffffffffffffffffffffffffffffffffffffffffffffffffffffff1916149050919050565b600033905090565b6124f582826113df565b6125845761251a8173ffffffffffffffffffffffffffffffffffffffff166014612757565b6125288360001c6020612757565b6040516020016125399291906133c1565b6040516020818303038152906040526040517f08c379a000000000000000000000000000000000000000000000000000000000815260040161257b9190613468565b60405180910390fd5b5050565b61259282826113df565b61266457600160008084815260200190815260200160002060000160008373ffffffffffffffffffffffffffffffffffffffff1673ffffffffffffffffffffffffffffffffffffffff16815260200190815260200160002060006101000a81548160ff0219169083151502179055506126096124e3565b73ffffffffffffffffffffffffffffffffffffffff168173ffffffffffffffffffffffffffffffffffffffff16837f2f8788117e7eff1d82e926ec794901d17c78024a50270940304540a733656f0d60405160405180910390a45b5050565b61267282826113df565b1561274557600080600084815260200190815260200160002060000160008373ffffffffffffffffffffffffffffffffffffffff1673ffffffffffffffffffffffffffffffffffffffff16815260200190815260200160002060006101000a81548160ff0219169083151502179055506126ea6124e3565b73ffffffffffffffffffffffffffffffffffffffff168173ffffffffffffffffffffffffffffffffffffffff16837ff6391f5c32d9c69d2a47ea670b442974b53935d1edc7fd64eb21e047a839171b60405160405180910390a45b5050565b6127538282612588565b5050565b60606000600283600261276a9190613778565b6127749190613722565b67ffffffffffffffff8111156127b3577f4e487b7100000000000000000000000000000000000000000000000000000000600052604160045260246000fd5b6040519080825280601f01601f1916602001820160405280156127e55781602001600182028036833780820191505090505b5090507f300000000000000000000000000000000000000000000000000000000000000081600081518110612843577f4e487b7100000000000000000000000000000000000000000000000000000000600052603260045260246000fd5b60200101907effffffffffffffffffffffffffffffffffffffffffffffffffffffffffffff1916908160001a9053507f7800000000000000000000000000000000000000000000000000000000000000816001815181106128cd577f4e487b7100000000000000000000000000000000000000000000000000000000600052603260045260246000fd5b60200101907effffffffffffffffffffffffffffffffffffffffffffffffffffffffffffff1916908160001a9053506000600184600261290d9190613778565b6129179190613722565b90505b6001811115612a03577f3031323334353637383961626364656600000000000000000000000000000000600f86166010811061297f577f4e487b7100000000000000000000000000000000000000000000000000000000600052603260045260246000fd5b1a60f81b8282815181106129bc577f4e487b7100000000000000000000000000000000000000000000000000000000600052603260045260246000fd5b60200101907effffffffffffffffffffffffffffffffffffffffffffffffffffffffffffff1916908160001a905350600485901c9450806129fc906138e6565b905061291a565b5060008414612a47576040517f08c379a0000000000000000000000000000000000000000000000000000000008152600401612a3e9061348a565b60405180910390fd5b8091505092915050565b828054612a5d90613910565b90600052602060002090601f016020900481019282612a7f5760008555612ac6565b82601f10612a9857805160ff1916838001178555612ac6565b82800160010185558215612ac6579182015b82811115612ac5578251825591602001919060010190612aaa565b5b509050612ad39190612c32565b5090565b6040518060c001604052806000815260200160608152602001600081526020016000815260200160006004811115612b38577f4e487b7100000000000000000000000000000000000000000000000000000000600052602160045260246000fd5b815260200160006003811115612b77577f4e487b7100000000000000000000000000000000000000000000000000000000600052602160045260246000fd5b81525090565b60405180610100016040528060008152602001606081526020016000815260200160008152602001600081526020016000815260200160006004811115612bed577f4e487b7100000000000000000000000000000000000000000000000000000000600052602160045260246000fd5b815260200160006003811115612c2c577f4e487b7100000000000000000000000000000000000000000000000000000000600052602160045260246000fd5b81525090565b5b80821115612c4b576000816000905550600101612c33565b5090565b6000612c62612c5d84613648565b613617565b905082815260208101848484011115612c7a57600080fd5b612c858482856138a4565b509392505050565b600081359050612c9c81613a80565b92915050565b600081359050612cb181613a97565b92915050565b600081359050612cc681613aae565b92915050565b600081359050612cdb81613ac5565b92915050565b600081359050612cf081613ad5565b92915050565b600082601f830112612d0757600080fd5b8135612d17848260208601612c4f565b91505092915050565b600081359050612d2f81613ae5565b92915050565b600060208284031215612d4757600080fd5b6000612d5584828501612c8d565b91505092915050565b600060208284031215612d7057600080fd5b6000612d7e84828501612ca2565b91505092915050565b60008060408385031215612d9a57600080fd5b6000612da885828601612ca2565b9250506020612db985828601612c8d565b9150509250929050565b600060208284031215612dd557600080fd5b6000612de384828501612cb7565b91505092915050565b60008060008060808587031215612e0257600080fd5b600085013567ffffffffffffffff811115612e1c57600080fd5b612e2887828801612cf6565b9450506020612e3987828801612d20565b9350506040612e4a87828801612ce1565b9250506060612e5b87828801612ccc565b91505092959194509250565b60008060008060008060c08789031215612e8057600080fd5b600087013567ffffffffffffffff811115612e9a57600080fd5b612ea689828a01612cf6565b9650506020612eb789828a01612d20565b9550506040612ec889828a01612d20565b9450506060612ed989828a01612d20565b9350506080612eea89828a01612ce1565b92505060a0612efb89828a01612ccc565b9150509295509295509295565b60008060408385031215612f1b57600080fd5b6000612f2985828601612d20565b9250506020612f3a85828601612d20565b9150509250929050565b6000612f50838361326a565b905092915050565b6000612f6483836132f3565b905092915050565b6000612f7782613698565b612f8181856136d3565b935083602082028501612f9385613678565b8060005b85811015612fcf5784840389528151612fb08582612f44565b9450612fbb836136b9565b925060208a01995050600181019050612f97565b50829750879550505050505092915050565b6000612fec826136a3565b612ff681856136e4565b93508360208202850161300885613688565b8060005b8581101561304457848403895281516130258582612f58565b9450613030836136c6565b925060208a0199505060018101905061300c565b50829750879550505050505092915050565b61305f816137e4565b82525050565b61306e816137f0565b82525050565b61307d81613880565b82525050565b61308c81613892565b82525050565b61309b8161384c565b82525050565b60006130ac826136ae565b6130b681856136f5565b93506130c68185602086016138b3565b6130cf81613a47565b840191505092915050565b60006130e5826136ae565b6130ef8185613706565b93506130ff8185602086016138b3565b61310881613a47565b840191505092915050565b600061311e826136ae565b6131288185613717565b93506131388185602086016138b3565b80840191505092915050565b6000613151602083613706565b91507f537472696e67733a20686578206c656e67746820696e73756666696369656e746000830152602082019050919050565b6000613191601783613717565b91507f416363657373436f6e74726f6c3a206163636f756e74200000000000000000006000830152601782019050919050565b60006131d1601183613717565b91507f206973206d697373696e6720726f6c65200000000000000000000000000000006000830152601182019050919050565b6000613211602f83613706565b91507f416363657373436f6e74726f6c3a2063616e206f6e6c792072656e6f756e636560008301527f20726f6c657320666f722073656c6600000000000000000000000000000000006020830152604082019050919050565b600060c08301600083015161328260008601826133a3565b506020830151848203602086015261329a82826130a1565b91505060408301516132af6040860182613092565b5060608301516132c260608601826133a3565b5060808301516132d56080860182613083565b5060a08301516132e860a0860182613074565b508091505092915050565b60006101008301600083015161330c60008601826133a3565b506020830151848203602086015261332482826130a1565b91505060408301516133396040860182613092565b50606083015161334c60608601826133a3565b50608083015161335f60808601826133a3565b5060a083015161337260a08601826133a3565b5060c083015161338560c0860182613083565b5060e083015161339860e0860182613074565b508091505092915050565b6133ac81613876565b82525050565b6133bb81613876565b82525050565b60006133cc82613184565b91506133d88285613113565b91506133e3826131c4565b91506133ef8284613113565b91508190509392505050565b600060408201905081810360008301526134158185612f6c565b905081810360208301526134298184612fe1565b90509392505050565b60006020820190506134476000830184613056565b92915050565b60006020820190506134626000830184613065565b92915050565b6000602082019050818103600083015261348281846130da565b905092915050565b600060208201905081810360008301526134a381613144565b9050919050565b600060208201905081810360008301526134c381613204565b9050919050565b600060a0820190506134df60008301886133b2565b81810360208301526134f181876130da565b905061350060408301866133b2565b818103606083015261351281856130da565b90506135216080830184613056565b9695505050505050565b600060a08201905061354060008301886133b2565b818103602083015261355281876130da565b905061356160408301866133b2565b818103606083015261357381856130da565b9050818103608083015261358781846130da565b90509695505050505050565b600060e0820190506135a8600083018a6133b2565b81810360208301526135ba81896130da565b90506135c960408301886133b2565b6135d660608301876133b2565b6135e360808301866133b2565b81810360a08301526135f581856130da565b905081810360c083015261360981846130da565b905098975050505050505050565b6000604051905081810181811067ffffffffffffffff8211171561363e5761363d613a18565b5b8060405250919050565b600067ffffffffffffffff82111561366357613662613a18565b5b601f19601f8301169050602081019050919050565b6000819050602082019050919050565b6000819050602082019050919050565b600081519050919050565b600081519050919050565b600081519050919050565b6000602082019050919050565b6000602082019050919050565b600082825260208201905092915050565b600082825260208201905092915050565b600082825260208201905092915050565b600082825260208201905092915050565b600081905092915050565b600061372d82613876565b915061373883613876565b9250827fffffffffffffffffffffffffffffffffffffffffffffffffffffffffffffffff0382111561376d5761376c61398b565b5b828201905092915050565b600061378382613876565b915061378e83613876565b9250817fffffffffffffffffffffffffffffffffffffffffffffffffffffffffffffffff04831182151516156137c7576137c661398b565b5b828202905092915050565b60006137dd82613856565b9050919050565b60008115159050919050565b6000819050919050565b60007fffffffff0000000000000000000000000000000000000000000000000000000082169050919050565b600081905061383482613a58565b919050565b600081905061384782613a6c565b919050565b6000819050919050565b600073ffffffffffffffffffffffffffffffffffffffff82169050919050565b6000819050919050565b600061388b82613826565b9050919050565b600061389d82613839565b9050919050565b82818337600083830152505050565b60005b838110156138d15780820151818401526020810190506138b6565b838111156138e0576000848401525b50505050565b60006138f182613876565b915060008214156139055761390461398b565b5b600182039050919050565b6000600282049050600182168061392857607f821691505b6020821081141561393c5761393b6139e9565b5b50919050565b600061394d82613876565b91507fffffffffffffffffffffffffffffffffffffffffffffffffffffffffffffffff8214156139805761397f61398b565b5b600182019050919050565b7f4e487b7100000000000000000000000000000000000000000000000000000000600052601160045260246000fd5b7f4e487b7100000000000000000000000000000000000000000000000000000000600052602160045260246000fd5b7f4e487b7100000000000000000000000000000000000000000000000000000000600052602260045260246000fd5b7f4e487b7100000000000000000000000000000000000000000000000000000000600052604160045260246000fd5b6000601f19601f8301169050919050565b60048110613a6957613a686139ba565b5b50565b60058110613a7d57613a7c6139ba565b5b50565b613a89816137d2565b8114613a9457600080fd5b50565b613aa0816137f0565b8114613aab57600080fd5b50565b613ab7816137fa565b8114613ac257600080fd5b50565b60048110613ad257600080fd5b50565b60058110613ae257600080fd5b50565b613aee81613876565b8114613af957600080fd5b5056fea26469706673582212204c510d0af07ee82bde2c2b094210cdb032bce6febe7455028d8f5af6148bb4c464736f6c63430008000033",
  "immutableReferences": {},
  "source": "// SPDX-License-Identifier: MIT\npragma solidity ^0.8.0;\n\nimport \"@openzeppelin/contracts/access/AccessControl.sol\";\n\ncontract Waitlist is AccessControl {\n\n  bytes32 public constant DOCTOR = keccak256(\"DOCTOR\");\n  bytes32 public constant DONOR = keccak256(\"DONOR\");\n\n  constructor (address doctor, address donor) public {\n    _setupRole(DEFAULT_ADMIN_ROLE, msg.sender);\n    _setupRole(DOCTOR, msg.sender);\n    _setupRole(DONOR, msg.sender);\n    _setupRole(DOCTOR, doctor);\n    _setupRole(DONOR, donor);\n  }\n\n\n  uint private recipient_counter = 0;\n  uint private donor_counter = 0;\n\n  enum Organ {\n      kidney,\n      liver,\n      lung,\n      pancreas,\n      intestine\n   }\n\n   enum BloodType {\n      A,\n      B,\n      AB,\n      O\n   }\n\n  struct Recipient {\n    uint id;\n    string name;\n    int256 donor_id;\n    uint severity;\n    uint score;\n    uint age;\n    Organ organ;\n    BloodType blood_type;\n  }\n\n  struct Donor {\n    uint id;\n    string name;\n    int256 recipient_id;\n    uint age;\n    Organ organ;\n    BloodType blood_type;\n  }\n\n  mapping(uint => Recipient) private waitlist;\n  mapping(uint => Donor) private donor_list;\n\n  event AddedToWaitlist(\n    uint patient_id,\n    string patient_name,\n    uint patient_age,\n    uint patient_severity,\n    uint patient_score,\n    string organ,\n    string blood_type\n  );\n\n  event MatchedToDonor(\n    uint recipient_id,\n    string recipient_name,\n    uint donor_id,\n    string donor_name,\n    bool success\n  );\n\n  event DonorRegistered(\n    uint donor_id,\n    string donor_name,\n    uint age,\n    string organ,\n    string blood_type\n  );\n\n  function grant_doctor_role(address doctor) public onlyRole(DEFAULT_ADMIN_ROLE) {\n    _setupRole(DOCTOR, doctor);\n  }\n\n  function grant_donor_role(address donor) public onlyRole(DEFAULT_ADMIN_ROLE) {\n    _setupRole(DONOR, donor);\n  }\n\n  function get_waitlist() public onlyRole(DOCTOR) returns (Donor[] memory, Recipient[] memory) {\n    Donor[] memory donors = new Donor[](donor_counter);\n    Recipient[] memory patients = new Recipient[](recipient_counter);\n\n    for (uint i = 0; i < donor_counter; i++) {\n      Donor storage donor = donor_list[i];\n      donors[i] = donor;\n    }\n\n    for (uint j = 0; j < recipient_counter; j++) {\n      Recipient storage patient = waitlist[j];\n      patients[j] = patient;\n    }\n\n    return (donors, patients);\n  } \n\n  function queue_recipient(string memory _name, uint _severity, uint _score, uint _age, Organ _organ, BloodType _blood_type) public onlyRole(DOCTOR) {\n    waitlist[recipient_counter] = Recipient(recipient_counter, _name, -1,  _severity, _score, _age, _organ, _blood_type);\n    \n    string memory _organ_name = \"\";\n    string memory _blood = \"\";\n\n    if (_organ == Organ.kidney ) {\n      _organ_name = \"kidney\";\n    } else if (_organ == Organ.liver ) {\n      _organ_name = \"liver\";\n    } else if (_organ == Organ.lung ) {\n      _organ_name = \"lung\";\n    } else if (_organ == Organ.pancreas ) {\n      _organ_name = \"pancreas\";\n    } else if (_organ == Organ.intestine ) {\n      _organ_name = \"intestine\";\n    } \n\n    if (_blood_type == BloodType.A ) {\n      _blood = \"A\";\n    } else if (_blood_type == BloodType.B ) {\n      _blood = \"B\";\n    } else if (_blood_type == BloodType.AB ) {\n      _blood = \"AB\";\n    } else if (_blood_type == BloodType.O ) {\n      _blood = \"O\";\n    }\n\n    emit AddedToWaitlist(recipient_counter, _name, _age, _severity, _score, _organ_name, _blood);\n    recipient_counter++;\n  }\n\n  function match_donor(uint _recipient_id, uint _donor_id) public onlyRole(DOCTOR) {\n    Recipient memory _recipient = waitlist[_recipient_id];\n    Donor memory _donor = donor_list[_donor_id];\n\n    if (_recipient.donor_id == -1 && _donor.recipient_id == -1) {\n      _recipient.donor_id = int256(_donor_id);\n      _donor.recipient_id = int256(_recipient_id);\n\n      waitlist[_recipient_id] = _recipient;\n      donor_list[_donor_id] = _donor;\n\n      emit MatchedToDonor(_recipient_id, _recipient.name, _donor_id, _donor.name, true);\n    } else {\n      emit MatchedToDonor(_recipient_id, _recipient.name, _donor_id, _donor.name, false);\n    }\n  }\n\n  function register_donor(string memory _name, uint _age, Organ _organ, BloodType _blood_type) public onlyRole(DONOR) {\n    donor_list[donor_counter] = Donor(donor_counter, _name, -1, _age, _organ, _blood_type);\n    donor_counter++;\n\n    string memory _organ_name = \"\";\n    string memory _blood = \"\";\n\n    if (_organ == Organ.kidney ) {\n      _organ_name = \"kidney\";\n    } else if (_organ == Organ.liver ) {\n      _organ_name = \"liver\";\n    } else if (_organ == Organ.lung ) {\n      _organ_name = \"lung\";\n    } else if (_organ == Organ.pancreas ) {\n      _organ_name = \"pancreas\";\n    } else if (_organ == Organ.intestine ) {\n      _organ_name = \"intestine\";\n    } \n\n    if (_blood_type == BloodType.A ) {\n      _blood = \"A\";\n    } else if (_blood_type == BloodType.B ) {\n      _blood = \"B\";\n    } else if (_blood_type == BloodType.AB ) {\n      _blood = \"AB\";\n    } else if (_blood_type == BloodType.O ) {\n      _blood = \"O\";\n    }\n\n    emit DonorRegistered(donor_counter, _name, _age, _organ_name, _blood);\n  }\n}",
  "sourcePath": "/home/richardr2926/Desktop/organ_lock/blockchain/contracts/Waitlist.sol",
  "compiler": {
    "name": "solc",
    "version": "0.8.0+commit.c7dfd78e.Emscripten.clang"
  },
  "schemaVersion": "3.4.5",
  "updatedAt": "2022-03-06T04:42:28.839Z",
  "networkType": "ethereum",
  "devdoc": {
    "kind": "dev",
    "methods": {
      "getRoleAdmin(bytes32)": {
        "details": "Returns the admin role that controls `role`. See {grantRole} and {revokeRole}. To change a role's admin, use {_setRoleAdmin}."
      },
      "grantRole(bytes32,address)": {
        "details": "Grants `role` to `account`. If `account` had not been already granted `role`, emits a {RoleGranted} event. Requirements: - the caller must have ``role``'s admin role."
      },
      "hasRole(bytes32,address)": {
        "details": "Returns `true` if `account` has been granted `role`."
      },
      "renounceRole(bytes32,address)": {
        "details": "Revokes `role` from the calling account. Roles are often managed via {grantRole} and {revokeRole}: this function's purpose is to provide a mechanism for accounts to lose their privileges if they are compromised (such as when a trusted device is misplaced). If the calling account had been revoked `role`, emits a {RoleRevoked} event. Requirements: - the caller must be `account`."
      },
      "revokeRole(bytes32,address)": {
        "details": "Revokes `role` from `account`. If `account` had been granted `role`, emits a {RoleRevoked} event. Requirements: - the caller must have ``role``'s admin role."
      },
      "supportsInterface(bytes4)": {
        "details": "See {IERC165-supportsInterface}."
      }
    },
    "version": 1
  },
  "userdoc": {
    "kind": "user",
    "methods": {},
    "version": 1
  }
}