{
  "contractName": "Waitlist",
  "abi": [
    {
      "inputs": [
        {
          "internalType": "address",
          "name": "doctor",
          "type": "address"
        },
        {
          "internalType": "address",
          "name": "donor",
          "type": "address"
        }
      ],
      "stateMutability": "nonpayable",
      "type": "constructor"
    },
    {
      "anonymous": false,
      "inputs": [
        {
          "indexed": false,
          "internalType": "uint256",
          "name": "patient_id",
          "type": "uint256"
        },
        {
          "indexed": false,
          "internalType": "bool",
          "name": "in_list",
          "type": "bool"
        }
      ],
      "name": "AddedToWaitlist",
      "type": "event"
    },
    {
      "anonymous": false,
      "inputs": [
        {
          "indexed": false,
          "internalType": "uint256",
          "name": "donor_id",
          "type": "uint256"
        },
        {
          "indexed": false,
          "internalType": "string",
          "name": "donor_name",
          "type": "string"
        },
        {
          "indexed": false,
          "internalType": "uint256",
          "name": "age",
          "type": "uint256"
        },
        {
          "indexed": false,
          "internalType": "string",
          "name": "organ",
          "type": "string"
        },
        {
          "indexed": false,
          "internalType": "string",
          "name": "blood_type",
          "type": "string"
        },
        {
          "indexed": false,
          "internalType": "bool",
          "name": "matched",
          "type": "bool"
        }
      ],
      "name": "DonorRegistered",
      "type": "event"
    },
    {
      "anonymous": false,
      "inputs": [
        {
          "indexed": false,
          "internalType": "uint256",
          "name": "recipient_id",
          "type": "uint256"
        },
        {
          "indexed": false,
          "internalType": "uint256",
          "name": "donor_id",
          "type": "uint256"
        },
        {
          "indexed": false,
          "internalType": "bool",
          "name": "success",
          "type": "bool"
        }
      ],
      "name": "MatchedToDonor",
      "type": "event"
    },
    {
      "anonymous": false,
      "inputs": [
        {
          "indexed": true,
          "internalType": "bytes32",
          "name": "role",
          "type": "bytes32"
        },
        {
          "indexed": true,
          "internalType": "bytes32",
          "name": "previousAdminRole",
          "type": "bytes32"
        },
        {
          "indexed": true,
          "internalType": "bytes32",
          "name": "newAdminRole",
          "type": "bytes32"
        }
      ],
      "name": "RoleAdminChanged",
      "type": "event"
    },
    {
      "anonymous": false,
      "inputs": [
        {
          "indexed": true,
          "internalType": "bytes32",
          "name": "role",
          "type": "bytes32"
        },
        {
          "indexed": true,
          "internalType": "address",
          "name": "account",
          "type": "address"
        },
        {
          "indexed": true,
          "internalType": "address",
          "name": "sender",
          "type": "address"
        }
      ],
      "name": "RoleGranted",
      "type": "event"
    },
    {
      "anonymous": false,
      "inputs": [
        {
          "indexed": true,
          "internalType": "bytes32",
          "name": "role",
          "type": "bytes32"
        },
        {
          "indexed": true,
          "internalType": "address",
          "name": "account",
          "type": "address"
        },
        {
          "indexed": true,
          "internalType": "address",
          "name": "sender",
          "type": "address"
        }
      ],
      "name": "RoleRevoked",
      "type": "event"
    },
    {
      "inputs": [],
      "name": "DEFAULT_ADMIN_ROLE",
      "outputs": [
        {
          "internalType": "bytes32",
          "name": "",
          "type": "bytes32"
        }
      ],
      "stateMutability": "view",
      "type": "function",
      "constant": true
    },
    {
      "inputs": [],
      "name": "DOCTOR",
      "outputs": [
        {
          "internalType": "bytes32",
          "name": "",
          "type": "bytes32"
        }
      ],
      "stateMutability": "view",
      "type": "function",
      "constant": true
    },
    {
      "inputs": [],
      "name": "DONOR",
      "outputs": [
        {
          "internalType": "bytes32",
          "name": "",
          "type": "bytes32"
        }
      ],
      "stateMutability": "view",
      "type": "function",
      "constant": true
    },
    {
      "inputs": [
        {
          "internalType": "bytes32",
          "name": "role",
          "type": "bytes32"
        }
      ],
      "name": "getRoleAdmin",
      "outputs": [
        {
          "internalType": "bytes32",
          "name": "",
          "type": "bytes32"
        }
      ],
      "stateMutability": "view",
      "type": "function",
      "constant": true
    },
    {
      "inputs": [
        {
          "internalType": "bytes32",
          "name": "role",
          "type": "bytes32"
        },
        {
          "internalType": "address",
          "name": "account",
          "type": "address"
        }
      ],
      "name": "grantRole",
      "outputs": [],
      "stateMutability": "nonpayable",
      "type": "function"
    },
    {
      "inputs": [
        {
          "internalType": "bytes32",
          "name": "role",
          "type": "bytes32"
        },
        {
          "internalType": "address",
          "name": "account",
          "type": "address"
        }
      ],
      "name": "hasRole",
      "outputs": [
        {
          "internalType": "bool",
          "name": "",
          "type": "bool"
        }
      ],
      "stateMutability": "view",
      "type": "function",
      "constant": true
    },
    {
      "inputs": [
        {
          "internalType": "bytes32",
          "name": "role",
          "type": "bytes32"
        },
        {
          "internalType": "address",
          "name": "account",
          "type": "address"
        }
      ],
      "name": "renounceRole",
      "outputs": [],
      "stateMutability": "nonpayable",
      "type": "function"
    },
    {
      "inputs": [
        {
          "internalType": "bytes32",
          "name": "role",
          "type": "bytes32"
        },
        {
          "internalType": "address",
          "name": "account",
          "type": "address"
        }
      ],
      "name": "revokeRole",
      "outputs": [],
      "stateMutability": "nonpayable",
      "type": "function"
    },
    {
      "inputs": [
        {
          "internalType": "bytes4",
          "name": "interfaceId",
          "type": "bytes4"
        }
      ],
      "name": "supportsInterface",
      "outputs": [
        {
          "internalType": "bool",
          "name": "",
          "type": "bool"
        }
      ],
      "stateMutability": "view",
      "type": "function",
      "constant": true
    },
    {
      "inputs": [],
      "name": "get_waitlist",
      "outputs": [
        {
          "components": [
            {
              "internalType": "uint256",
              "name": "id",
              "type": "uint256"
            },
            {
              "internalType": "string",
              "name": "name",
              "type": "string"
            },
            {
              "internalType": "int256",
              "name": "recipient_id",
              "type": "int256"
            },
            {
              "internalType": "uint256",
              "name": "age",
              "type": "uint256"
            },
            {
              "internalType": "enum Waitlist.Organ",
              "name": "organ",
              "type": "uint8"
            },
            {
              "internalType": "enum Waitlist.BloodType",
              "name": "blood_type",
              "type": "uint8"
            }
          ],
          "internalType": "struct Waitlist.Donor[]",
          "name": "",
          "type": "tuple[]"
        },
        {
          "components": [
            {
              "internalType": "uint256",
              "name": "id",
              "type": "uint256"
            },
            {
              "internalType": "string",
              "name": "name",
              "type": "string"
            },
            {
              "internalType": "int256",
              "name": "donor_id",
              "type": "int256"
            },
            {
              "internalType": "uint256",
              "name": "severity",
              "type": "uint256"
            },
            {
              "internalType": "uint256",
              "name": "score",
              "type": "uint256"
            },
            {
              "internalType": "uint256",
              "name": "age",
              "type": "uint256"
            },
            {
              "internalType": "enum Waitlist.Organ",
              "name": "organ",
              "type": "uint8"
            },
            {
              "internalType": "enum Waitlist.BloodType",
              "name": "blood_type",
              "type": "uint8"
            }
          ],
          "internalType": "struct Waitlist.Recipient[]",
          "name": "",
          "type": "tuple[]"
        }
      ],
      "stateMutability": "nonpayable",
      "type": "function"
    },
    {
      "inputs": [
        {
          "internalType": "string",
          "name": "_name",
          "type": "string"
        },
        {
          "internalType": "uint256",
          "name": "_severity",
          "type": "uint256"
        },
        {
          "internalType": "uint256",
          "name": "_score",
          "type": "uint256"
        },
        {
          "internalType": "uint256",
          "name": "_age",
          "type": "uint256"
        },
        {
          "internalType": "enum Waitlist.Organ",
          "name": "_organ",
          "type": "uint8"
        },
        {
          "internalType": "enum Waitlist.BloodType",
          "name": "_blood_type",
          "type": "uint8"
        }
      ],
      "name": "queue_recipient",
      "outputs": [],
      "stateMutability": "nonpayable",
      "type": "function"
    },
    {
      "inputs": [
        {
          "internalType": "uint256",
          "name": "_recipient_id",
          "type": "uint256"
        },
        {
          "internalType": "uint256",
          "name": "_donor_id",
          "type": "uint256"
        }
      ],
      "name": "match_donor",
      "outputs": [],
      "stateMutability": "nonpayable",
      "type": "function"
    },
    {
      "inputs": [
        {
          "internalType": "string",
          "name": "_name",
          "type": "string"
        },
        {
          "internalType": "uint256",
          "name": "_age",
          "type": "uint256"
        },
        {
          "internalType": "enum Waitlist.Organ",
          "name": "_organ",
          "type": "uint8"
        },
        {
          "internalType": "enum Waitlist.BloodType",
          "name": "_blood_type",
          "type": "uint8"
        }
      ],
      "name": "register_donor",
      "outputs": [],
      "stateMutability": "nonpayable",
      "type": "function"
    }
  ],
  "bytecode": "0x6080604052600060015560006002553480156200001b57600080fd5b50604051620035e6380380620035e6833981810160405281019062000041919062000252565b620000566000801b33620000c260201b60201c565b620000887fc9c8e67a61d2e7371df46522b44051b955c16bf4b713ef44e1373b25bfcd80b283620000c260201b60201c565b620000ba7f7220c8c83db3df705edc2f907812addbce8b70b5f7208909f67735d3cf5ad72782620000c260201b60201c565b5050620002e1565b620000d48282620000d860201b60201c565b5050565b620000ea8282620001c960201b60201c565b620001c557600160008084815260200190815260200160002060000160008373ffffffffffffffffffffffffffffffffffffffff1673ffffffffffffffffffffffffffffffffffffffff16815260200190815260200160002060006101000a81548160ff0219169083151502179055506200016a6200023360201b60201c565b73ffffffffffffffffffffffffffffffffffffffff168173ffffffffffffffffffffffffffffffffffffffff16837f2f8788117e7eff1d82e926ec794901d17c78024a50270940304540a733656f0d60405160405180910390a45b5050565b600080600084815260200190815260200160002060000160008373ffffffffffffffffffffffffffffffffffffffff1673ffffffffffffffffffffffffffffffffffffffff16815260200190815260200160002060009054906101000a900460ff16905092915050565b600033905090565b6000815190506200024c81620002c7565b92915050565b600080604083850312156200026657600080fd5b600062000276858286016200023b565b925050602062000289858286016200023b565b9150509250929050565b6000620002a082620002a7565b9050919050565b600073ffffffffffffffffffffffffffffffffffffffff82169050919050565b620002d28162000293565b8114620002de57600080fd5b50565b6132f580620002f16000396000f3fe608060405234801561001057600080fd5b50600436106100cf5760003560e01c80633f4d12ac1161008c578063a217fddf11610066578063a217fddf14610213578063cf9bd03c14610231578063d547741f1461024d578063e683377d14610269576100cf565b80633f4d12ac146101a65780634576d251146101c557806391d14854146101e3576100cf565b806301ffc9a7146100d4578063248a9ca3146101045780632b15d275146101345780632efbdf82146101505780632f2ff15d1461016e57806336568abe1461018a575b600080fd5b6100ee60048036038101906100e991906125fd565b610285565b6040516100fb9190612c6c565b60405180910390f35b61011e60048036038101906101199190612598565b6102ff565b60405161012b9190612c87565b60405180910390f35b61014e600480360381019061014991906126a1565b61031e565b005b61015861058c565b6040516101659190612c87565b60405180910390f35b610188600480360381019061018391906125c1565b6105b0565b005b6101a4600480360381019061019f91906125c1565b6105d9565b005b6101ae61065c565b6040516101bc929190612c35565b60405180910390f35b6101cd610c41565b6040516101da9190612c87565b60405180910390f35b6101fd60048036038101906101f891906125c1565b610c65565b60405161020a9190612c6c565b60405180910390f35b61021b610ccf565b6040516102289190612c87565b60405180910390f35b61024b60048036038101906102469190612626565b610cd6565b005b610267600480360381019061026291906125c1565b6115b6565b005b610283600480360381019061027e9190612742565b6115df565b005b60007f7965db0b000000000000000000000000000000000000000000000000000000007bffffffffffffffffffffffffffffffffffffffffffffffffffffffff1916827bffffffffffffffffffffffffffffffffffffffffffffffffffffffff191614806102f857506102f782611cea565b5b9050919050565b6000806000838152602001908152602001600020600101549050919050565b7fc9c8e67a61d2e7371df46522b44051b955c16bf4b713ef44e1373b25bfcd80b26103508161034b611d54565b611d5c565b60405180610100016040528060015481526020018881526020017fffffffffffffffffffffffffffffffffffffffffffffffffffffffffffffffff81526020018781526020018681526020018581526020018460048111156103db577f4e487b7100000000000000000000000000000000000000000000000000000000600052602160045260246000fd5b8152602001836003811115610419577f4e487b7100000000000000000000000000000000000000000000000000000000600052602160045260246000fd5b8152506003600060015481526020019081526020016000206000820151816000015560208201518160010190805190602001906104579291906122b4565b5060408201518160020155606082015181600301556080820151816004015560a0820151816005015560c08201518160060160006101000a81548160ff021916908360048111156104d1577f4e487b7100000000000000000000000000000000000000000000000000000000600052602160045260246000fd5b021790555060e08201518160060160016101000a81548160ff02191690836003811115610527577f4e487b7100000000000000000000000000000000000000000000000000000000600052602160045260246000fd5b02179055509050506001600081548092919061054290613105565b91905055507fba456091740fee93432790ed4e67cfed3cc3b89431c81a925c8741d16396f3ff600154600160405161057b929190612d04565b60405180910390a150505050505050565b7fc9c8e67a61d2e7371df46522b44051b955c16bf4b713ef44e1373b25bfcd80b281565b6105b9826102ff565b6105ca816105c5611d54565b611d5c565b6105d48383611df9565b505050565b6105e1611d54565b73ffffffffffffffffffffffffffffffffffffffff168173ffffffffffffffffffffffffffffffffffffffff161461064e576040517f08c379a000000000000000000000000000000000000000000000000000000000815260040161064590612ce4565b60405180910390fd5b6106588282611ed9565b5050565b6060807fc9c8e67a61d2e7371df46522b44051b955c16bf4b713ef44e1373b25bfcd80b26106918161068c611d54565b611d5c565b600060025467ffffffffffffffff8111156106d5577f4e487b7100000000000000000000000000000000000000000000000000000000600052604160045260246000fd5b60405190808252806020026020018201604052801561070e57816020015b6106fb61233a565b8152602001906001900390816106f35790505b509050600060015467ffffffffffffffff811115610755577f4e487b7100000000000000000000000000000000000000000000000000000000600052604160045260246000fd5b60405190808252806020026020018201604052801561078e57816020015b61077b6123e0565b8152602001906001900390816107735790505b50905060005b6002548110156109d7576000600460008381526020019081526020016000209050806040518060c0016040529081600082015481526020016001820180546107db906130d3565b80601f0160208091040260200160405190810160405280929190818152602001828054610807906130d3565b80156108545780601f1061082957610100808354040283529160200191610854565b820191906000526020600020905b81548152906001019060200180831161083757829003601f168201915b5050505050815260200160028201548152602001600382015481526020016004820160009054906101000a900460ff1660048111156108bc577f4e487b7100000000000000000000000000000000000000000000000000000000600052602160045260246000fd5b60048111156108f4577f4e487b7100000000000000000000000000000000000000000000000000000000600052602160045260246000fd5b81526020016004820160019054906101000a900460ff166003811115610943577f4e487b7100000000000000000000000000000000000000000000000000000000600052602160045260246000fd5b600381111561097b577f4e487b7100000000000000000000000000000000000000000000000000000000600052602160045260246000fd5b815250508483815181106109b8577f4e487b7100000000000000000000000000000000000000000000000000000000600052603260045260246000fd5b60200260200101819052505080806109cf90613105565b915050610794565b5060005b600154811015610c33576000600360008381526020019081526020016000209050806040518061010001604052908160008201548152602001600182018054610a23906130d3565b80601f0160208091040260200160405190810160405280929190818152602001828054610a4f906130d3565b8015610a9c5780601f10610a7157610100808354040283529160200191610a9c565b820191906000526020600020905b815481529060010190602001808311610a7f57829003601f168201915b50505050508152602001600282015481526020016003820154815260200160048201548152602001600582015481526020016006820160009054906101000a900460ff166004811115610b18577f4e487b7100000000000000000000000000000000000000000000000000000000600052602160045260246000fd5b6004811115610b50577f4e487b7100000000000000000000000000000000000000000000000000000000600052602160045260246000fd5b81526020016006820160019054906101000a900460ff166003811115610b9f577f4e487b7100000000000000000000000000000000000000000000000000000000600052602160045260246000fd5b6003811115610bd7577f4e487b7100000000000000000000000000000000000000000000000000000000600052602160045260246000fd5b81525050838381518110610c14577f4e487b7100000000000000000000000000000000000000000000000000000000600052603260045260246000fd5b6020026020010181905250508080610c2b90613105565b9150506109db565b508181945094505050509091565b7f7220c8c83db3df705edc2f907812addbce8b70b5f7208909f67735d3cf5ad72781565b600080600084815260200190815260200160002060000160008373ffffffffffffffffffffffffffffffffffffffff1673ffffffffffffffffffffffffffffffffffffffff16815260200190815260200160002060009054906101000a900460ff16905092915050565b6000801b81565b7f7220c8c83db3df705edc2f907812addbce8b70b5f7208909f67735d3cf5ad727610d0881610d03611d54565b611d5c565b6040518060c0016040528060025481526020018681526020017fffffffffffffffffffffffffffffffffffffffffffffffffffffffffffffffff8152602001858152602001846004811115610d86577f4e487b7100000000000000000000000000000000000000000000000000000000600052602160045260246000fd5b8152602001836003811115610dc4577f4e487b7100000000000000000000000000000000000000000000000000000000600052602160045260246000fd5b815250600460006002548152602001908152602001600020600082015181600001556020820151816001019080519060200190610e029291906122b4565b50604082015181600201556060820151816003015560808201518160040160006101000a81548160ff02191690836004811115610e68577f4e487b7100000000000000000000000000000000000000000000000000000000600052602160045260246000fd5b021790555060a08201518160040160016101000a81548160ff02191690836003811115610ebe577f4e487b7100000000000000000000000000000000000000000000000000000000600052602160045260246000fd5b021790555090505060026000815480929190610ed990613105565b91905055506000604051806020016040528060008152509050600060405180602001604052806000815250905060006004811115610f40577f4e487b7100000000000000000000000000000000000000000000000000000000600052602160045260246000fd5b856004811115610f79577f4e487b7100000000000000000000000000000000000000000000000000000000600052602160045260246000fd5b1415610fbc576040518060400160405280600681526020017f6b69646e657900000000000000000000000000000000000000000000000000008152509150611293565b60016004811115610ff6577f4e487b7100000000000000000000000000000000000000000000000000000000600052602160045260246000fd5b85600481111561102f577f4e487b7100000000000000000000000000000000000000000000000000000000600052602160045260246000fd5b1415611072576040518060400160405280600581526020017f6c697665720000000000000000000000000000000000000000000000000000008152509150611292565b600260048111156110ac577f4e487b7100000000000000000000000000000000000000000000000000000000600052602160045260246000fd5b8560048111156110e5577f4e487b7100000000000000000000000000000000000000000000000000000000600052602160045260246000fd5b1415611128576040518060400160405280600481526020017f6c756e67000000000000000000000000000000000000000000000000000000008152509150611291565b60036004811115611162577f4e487b7100000000000000000000000000000000000000000000000000000000600052602160045260246000fd5b85600481111561119b577f4e487b7100000000000000000000000000000000000000000000000000000000600052602160045260246000fd5b14156111de576040518060400160405280600881526020017f70616e63726561730000000000000000000000000000000000000000000000008152509150611290565b600480811115611217577f4e487b7100000000000000000000000000000000000000000000000000000000600052602160045260246000fd5b856004811115611250577f4e487b7100000000000000000000000000000000000000000000000000000000600052602160045260246000fd5b141561128f576040518060400160405280600981526020017f696e74657374696e65000000000000000000000000000000000000000000000081525091505b5b5b5b5b600060038111156112cd577f4e487b7100000000000000000000000000000000000000000000000000000000600052602160045260246000fd5b846003811115611306577f4e487b7100000000000000000000000000000000000000000000000000000000600052602160045260246000fd5b1415611349576040518060400160405280600181526020017f41000000000000000000000000000000000000000000000000000000000000008152509050611569565b60016003811115611383577f4e487b7100000000000000000000000000000000000000000000000000000000600052602160045260246000fd5b8460038111156113bc577f4e487b7100000000000000000000000000000000000000000000000000000000600052602160045260246000fd5b14156113ff576040518060400160405280600181526020017f42000000000000000000000000000000000000000000000000000000000000008152509050611568565b60026003811115611439577f4e487b7100000000000000000000000000000000000000000000000000000000600052602160045260246000fd5b846003811115611472577f4e487b7100000000000000000000000000000000000000000000000000000000600052602160045260246000fd5b14156114b5576040518060400160405280600281526020017f41420000000000000000000000000000000000000000000000000000000000008152509050611567565b6003808111156114ee577f4e487b7100000000000000000000000000000000000000000000000000000000600052602160045260246000fd5b846003811115611527577f4e487b7100000000000000000000000000000000000000000000000000000000600052602160045260246000fd5b1415611566576040518060400160405280600181526020017f4f0000000000000000000000000000000000000000000000000000000000000081525090505b5b5b5b7f365d1fb13593d3d43f509799e5b3c778251cd0ba592d7de0f0c72600e19ba0e56002548888858560006040516115a596959493929190612d2d565b60405180910390a150505050505050565b6115bf826102ff565b6115d0816115cb611d54565b611d5c565b6115da8383611ed9565b505050565b7fc9c8e67a61d2e7371df46522b44051b955c16bf4b713ef44e1373b25bfcd80b26116118161160c611d54565b611d5c565b600060036000858152602001908152602001600020604051806101000160405290816000820154815260200160018201805461164c906130d3565b80601f0160208091040260200160405190810160405280929190818152602001828054611678906130d3565b80156116c55780601f1061169a576101008083540402835291602001916116c5565b820191906000526020600020905b8154815290600101906020018083116116a857829003601f168201915b50505050508152602001600282015481526020016003820154815260200160048201548152602001600582015481526020016006820160009054906101000a900460ff166004811115611741577f4e487b7100000000000000000000000000000000000000000000000000000000600052602160045260246000fd5b6004811115611779577f4e487b7100000000000000000000000000000000000000000000000000000000600052602160045260246000fd5b81526020016006820160019054906101000a900460ff1660038111156117c8577f4e487b7100000000000000000000000000000000000000000000000000000000600052602160045260246000fd5b6003811115611800577f4e487b7100000000000000000000000000000000000000000000000000000000600052602160045260246000fd5b8152505090506000600460008581526020019081526020016000206040518060c001604052908160008201548152602001600182018054611840906130d3565b80601f016020809104026020016040519081016040528092919081815260200182805461186c906130d3565b80156118b95780601f1061188e576101008083540402835291602001916118b9565b820191906000526020600020905b81548152906001019060200180831161189c57829003601f168201915b5050505050815260200160028201548152602001600382015481526020016004820160009054906101000a900460ff166004811115611921577f4e487b7100000000000000000000000000000000000000000000000000000000600052602160045260246000fd5b6004811115611959577f4e487b7100000000000000000000000000000000000000000000000000000000600052602160045260246000fd5b81526020016004820160019054906101000a900460ff1660038111156119a8577f4e487b7100000000000000000000000000000000000000000000000000000000600052602160045260246000fd5b60038111156119e0577f4e487b7100000000000000000000000000000000000000000000000000000000600052602160045260246000fd5b8152505090507fffffffffffffffffffffffffffffffffffffffffffffffffffffffffffffffff8260400151148015611a3c57507fffffffffffffffffffffffffffffffffffffffffffffffffffffffffffffffff8160400151145b15611ca65783826040018181525050848160400181815250508160036000878152602001908152602001600020600082015181600001556020820151816001019080519060200190611a8f9291906122b4565b5060408201518160020155606082015181600301556080820151816004015560a0820151816005015560c08201518160060160006101000a81548160ff02191690836004811115611b09577f4e487b7100000000000000000000000000000000000000000000000000000000600052602160045260246000fd5b021790555060e08201518160060160016101000a81548160ff02191690836003811115611b5f577f4e487b7100000000000000000000000000000000000000000000000000000000600052602160045260246000fd5b02179055509050508060046000868152602001908152602001600020600082015181600001556020820151816001019080519060200190611ba19291906122b4565b50604082015181600201556060820151816003015560808201518160040160006101000a81548160ff02191690836004811115611c07577f4e487b7100000000000000000000000000000000000000000000000000000000600052602160045260246000fd5b021790555060a08201518160040160016101000a81548160ff02191690836003811115611c5d577f4e487b7100000000000000000000000000000000000000000000000000000000600052602160045260246000fd5b02179055509050507f0f61ee826cb499c21e666b2e406bd7914cc6b143913313a5d722a2a66bcd603b85856001604051611c9993929190612da3565b60405180910390a1611ce3565b7f0f61ee826cb499c21e666b2e406bd7914cc6b143913313a5d722a2a66bcd603b85856000604051611cda93929190612da3565b60405180910390a15b5050505050565b60007f01ffc9a7000000000000000000000000000000000000000000000000000000007bffffffffffffffffffffffffffffffffffffffffffffffffffffffff1916827bffffffffffffffffffffffffffffffffffffffffffffffffffffffff1916149050919050565b600033905090565b611d668282610c65565b611df557611d8b8173ffffffffffffffffffffffffffffffffffffffff166014611fba565b611d998360001c6020611fba565b604051602001611daa929190612bfb565b6040516020818303038152906040526040517f08c379a0000000000000000000000000000000000000000000000000000000008152600401611dec9190612ca2565b60405180910390fd5b5050565b611e038282610c65565b611ed557600160008084815260200190815260200160002060000160008373ffffffffffffffffffffffffffffffffffffffff1673ffffffffffffffffffffffffffffffffffffffff16815260200190815260200160002060006101000a81548160ff021916908315150217905550611e7a611d54565b73ffffffffffffffffffffffffffffffffffffffff168173ffffffffffffffffffffffffffffffffffffffff16837f2f8788117e7eff1d82e926ec794901d17c78024a50270940304540a733656f0d60405160405180910390a45b5050565b611ee38282610c65565b15611fb657600080600084815260200190815260200160002060000160008373ffffffffffffffffffffffffffffffffffffffff1673ffffffffffffffffffffffffffffffffffffffff16815260200190815260200160002060006101000a81548160ff021916908315150217905550611f5b611d54565b73ffffffffffffffffffffffffffffffffffffffff168173ffffffffffffffffffffffffffffffffffffffff16837ff6391f5c32d9c69d2a47ea670b442974b53935d1edc7fd64eb21e047a839171b60405160405180910390a45b5050565b606060006002836002611fcd9190612f3b565b611fd79190612ee5565b67ffffffffffffffff811115612016577f4e487b7100000000000000000000000000000000000000000000000000000000600052604160045260246000fd5b6040519080825280601f01601f1916602001820160405280156120485781602001600182028036833780820191505090505b5090507f3000000000000000000000000000000000000000000000000000000000000000816000815181106120a6577f4e487b7100000000000000000000000000000000000000000000000000000000600052603260045260246000fd5b60200101907effffffffffffffffffffffffffffffffffffffffffffffffffffffffffffff1916908160001a9053507f780000000000000000000000000000000000000000000000000000000000000081600181518110612130577f4e487b7100000000000000000000000000000000000000000000000000000000600052603260045260246000fd5b60200101907effffffffffffffffffffffffffffffffffffffffffffffffffffffffffffff1916908160001a905350600060018460026121709190612f3b565b61217a9190612ee5565b90505b6001811115612266577f3031323334353637383961626364656600000000000000000000000000000000600f8616601081106121e2577f4e487b7100000000000000000000000000000000000000000000000000000000600052603260045260246000fd5b1a60f81b82828151811061221f577f4e487b7100000000000000000000000000000000000000000000000000000000600052603260045260246000fd5b60200101907effffffffffffffffffffffffffffffffffffffffffffffffffffffffffffff1916908160001a905350600485901c94508061225f906130a9565b905061217d565b50600084146122aa576040517f08c379a00000000000000000000000000000000000000000000000000000000081526004016122a190612cc4565b60405180910390fd5b8091505092915050565b8280546122c0906130d3565b90600052602060002090601f0160209004810192826122e25760008555612329565b82601f106122fb57805160ff1916838001178555612329565b82800160010185558215612329579182015b8281111561232857825182559160200191906001019061230d565b5b5090506123369190612495565b5090565b6040518060c00160405280600081526020016060815260200160008152602001600081526020016000600481111561239b577f4e487b7100000000000000000000000000000000000000000000000000000000600052602160045260246000fd5b8152602001600060038111156123da577f4e487b7100000000000000000000000000000000000000000000000000000000600052602160045260246000fd5b81525090565b60405180610100016040528060008152602001606081526020016000815260200160008152602001600081526020016000815260200160006004811115612450577f4e487b7100000000000000000000000000000000000000000000000000000000600052602160045260246000fd5b81526020016000600381111561248f577f4e487b7100000000000000000000000000000000000000000000000000000000600052602160045260246000fd5b81525090565b5b808211156124ae576000816000905550600101612496565b5090565b60006124c56124c084612e0b565b612dda565b9050828152602081018484840111156124dd57600080fd5b6124e8848285613067565b509392505050565b6000813590506124ff81613243565b92915050565b6000813590506125148161325a565b92915050565b60008135905061252981613271565b92915050565b60008135905061253e81613288565b92915050565b60008135905061255381613298565b92915050565b600082601f83011261256a57600080fd5b813561257a8482602086016124b2565b91505092915050565b600081359050612592816132a8565b92915050565b6000602082840312156125aa57600080fd5b60006125b884828501612505565b91505092915050565b600080604083850312156125d457600080fd5b60006125e285828601612505565b92505060206125f3858286016124f0565b9150509250929050565b60006020828403121561260f57600080fd5b600061261d8482850161251a565b91505092915050565b6000806000806080858703121561263c57600080fd5b600085013567ffffffffffffffff81111561265657600080fd5b61266287828801612559565b945050602061267387828801612583565b935050604061268487828801612544565b92505060606126958782880161252f565b91505092959194509250565b60008060008060008060c087890312156126ba57600080fd5b600087013567ffffffffffffffff8111156126d457600080fd5b6126e089828a01612559565b96505060206126f189828a01612583565b955050604061270289828a01612583565b945050606061271389828a01612583565b935050608061272489828a01612544565b92505060a061273589828a0161252f565b9150509295509295509295565b6000806040838503121561275557600080fd5b600061276385828601612583565b925050602061277485828601612583565b9150509250929050565b600061278a8383612aa4565b905092915050565b600061279e8383612b2d565b905092915050565b60006127b182612e5b565b6127bb8185612e96565b9350836020820285016127cd85612e3b565b8060005b8581101561280957848403895281516127ea858261277e565b94506127f583612e7c565b925060208a019950506001810190506127d1565b50829750879550505050505092915050565b600061282682612e66565b6128308185612ea7565b93508360208202850161284285612e4b565b8060005b8581101561287e578484038952815161285f8582612792565b945061286a83612e89565b925060208a01995050600181019050612846565b50829750879550505050505092915050565b61289981612fa7565b82525050565b6128a881612fb3565b82525050565b6128b781613043565b82525050565b6128c681613055565b82525050565b6128d58161300f565b82525050565b60006128e682612e71565b6128f08185612eb8565b9350612900818560208601613076565b6129098161320a565b840191505092915050565b600061291f82612e71565b6129298185612ec9565b9350612939818560208601613076565b6129428161320a565b840191505092915050565b600061295882612e71565b6129628185612eda565b9350612972818560208601613076565b80840191505092915050565b600061298b602083612ec9565b91507f537472696e67733a20686578206c656e67746820696e73756666696369656e746000830152602082019050919050565b60006129cb601783612eda565b91507f416363657373436f6e74726f6c3a206163636f756e74200000000000000000006000830152601782019050919050565b6000612a0b601183612eda565b91507f206973206d697373696e6720726f6c65200000000000000000000000000000006000830152601182019050919050565b6000612a4b602f83612ec9565b91507f416363657373436f6e74726f6c3a2063616e206f6e6c792072656e6f756e636560008301527f20726f6c657320666f722073656c6600000000000000000000000000000000006020830152604082019050919050565b600060c083016000830151612abc6000860182612bdd565b5060208301518482036020860152612ad482826128db565b9150506040830151612ae960408601826128cc565b506060830151612afc6060860182612bdd565b506080830151612b0f60808601826128bd565b5060a0830151612b2260a08601826128ae565b508091505092915050565b600061010083016000830151612b466000860182612bdd565b5060208301518482036020860152612b5e82826128db565b9150506040830151612b7360408601826128cc565b506060830151612b866060860182612bdd565b506080830151612b996080860182612bdd565b5060a0830151612bac60a0860182612bdd565b5060c0830151612bbf60c08601826128bd565b5060e0830151612bd260e08601826128ae565b508091505092915050565b612be681613039565b82525050565b612bf581613039565b82525050565b6000612c06826129be565b9150612c12828561294d565b9150612c1d826129fe565b9150612c29828461294d565b91508190509392505050565b60006040820190508181036000830152612c4f81856127a6565b90508181036020830152612c63818461281b565b90509392505050565b6000602082019050612c816000830184612890565b92915050565b6000602082019050612c9c600083018461289f565b92915050565b60006020820190508181036000830152612cbc8184612914565b905092915050565b60006020820190508181036000830152612cdd8161297e565b9050919050565b60006020820190508181036000830152612cfd81612a3e565b9050919050565b6000604082019050612d196000830185612bec565b612d266020830184612890565b9392505050565b600060c082019050612d426000830189612bec565b8181036020830152612d548188612914565b9050612d636040830187612bec565b8181036060830152612d758186612914565b90508181036080830152612d898185612914565b9050612d9860a0830184612890565b979650505050505050565b6000606082019050612db86000830186612bec565b612dc56020830185612bec565b612dd26040830184612890565b949350505050565b6000604051905081810181811067ffffffffffffffff82111715612e0157612e006131db565b5b8060405250919050565b600067ffffffffffffffff821115612e2657612e256131db565b5b601f19601f8301169050602081019050919050565b6000819050602082019050919050565b6000819050602082019050919050565b600081519050919050565b600081519050919050565b600081519050919050565b6000602082019050919050565b6000602082019050919050565b600082825260208201905092915050565b600082825260208201905092915050565b600082825260208201905092915050565b600082825260208201905092915050565b600081905092915050565b6000612ef082613039565b9150612efb83613039565b9250827fffffffffffffffffffffffffffffffffffffffffffffffffffffffffffffffff03821115612f3057612f2f61314e565b5b828201905092915050565b6000612f4682613039565b9150612f5183613039565b9250817fffffffffffffffffffffffffffffffffffffffffffffffffffffffffffffffff0483118215151615612f8a57612f8961314e565b5b828202905092915050565b6000612fa082613019565b9050919050565b60008115159050919050565b6000819050919050565b60007fffffffff0000000000000000000000000000000000000000000000000000000082169050919050565b6000819050612ff78261321b565b919050565b600081905061300a8261322f565b919050565b6000819050919050565b600073ffffffffffffffffffffffffffffffffffffffff82169050919050565b6000819050919050565b600061304e82612fe9565b9050919050565b600061306082612ffc565b9050919050565b82818337600083830152505050565b60005b83811015613094578082015181840152602081019050613079565b838111156130a3576000848401525b50505050565b60006130b482613039565b915060008214156130c8576130c761314e565b5b600182039050919050565b600060028204905060018216806130eb57607f821691505b602082108114156130ff576130fe6131ac565b5b50919050565b600061311082613039565b91507fffffffffffffffffffffffffffffffffffffffffffffffffffffffffffffffff8214156131435761314261314e565b5b600182019050919050565b7f4e487b7100000000000000000000000000000000000000000000000000000000600052601160045260246000fd5b7f4e487b7100000000000000000000000000000000000000000000000000000000600052602160045260246000fd5b7f4e487b7100000000000000000000000000000000000000000000000000000000600052602260045260246000fd5b7f4e487b7100000000000000000000000000000000000000000000000000000000600052604160045260246000fd5b6000601f19601f8301169050919050565b6004811061322c5761322b61317d565b5b50565b600581106132405761323f61317d565b5b50565b61324c81612f95565b811461325757600080fd5b50565b61326381612fb3565b811461326e57600080fd5b50565b61327a81612fbd565b811461328557600080fd5b50565b6004811061329557600080fd5b50565b600581106132a557600080fd5b50565b6132b181613039565b81146132bc57600080fd5b5056fea2646970667358221220e22c0475214655ef21512aa9b6a6d5d93492d1a674821b5bbc1a63386b1805fc64736f6c63430008000033",
  "immutableReferences": {},
  "source": "// SPDX-License-Identifier: MIT\npragma solidity ^0.8.0;\n\nimport \"@openzeppelin/contracts/access/AccessControl.sol\";\n\ncontract Waitlist is AccessControl {\n\n  bytes32 public constant DOCTOR = keccak256(\"DOCTOR\");\n  bytes32 public constant DONOR = keccak256(\"DONOR\");\n\n  constructor (address doctor, address donor) public {\n    _setupRole(DEFAULT_ADMIN_ROLE, msg.sender);\n    _setupRole(DOCTOR, doctor);\n    _setupRole(DONOR, donor);\n  }\n\n\n  uint private recipient_counter = 0;\n  uint private donor_counter = 0;\n\n  enum Organ {\n      kidney,\n      liver,\n      lung,\n      pancreas,\n      intestine\n   }\n\n   enum BloodType {\n      A,\n      B,\n      AB,\n      O\n   }\n\n  struct Recipient {\n    uint id;\n    string name;\n    int256 donor_id;\n    uint severity;\n    uint score;\n    uint age;\n    Organ organ;\n    BloodType blood_type;\n  }\n\n  struct Donor {\n    uint id;\n    string name;\n    int256 recipient_id;\n    uint age;\n    Organ organ;\n    BloodType blood_type;\n  }\n\n  mapping(uint => Recipient) private waitlist;\n  mapping(uint => Donor) private donor_list;\n\n  event AddedToWaitlist(\n    uint patient_id,\n    bool in_list\n  );\n\n  event MatchedToDonor(\n    uint recipient_id,\n    uint donor_id,\n    bool success\n  );\n\n  event DonorRegistered(\n    uint donor_id,\n    string donor_name,\n    uint age,\n    string organ,\n    string blood_type,\n    bool matched\n  );\n\n  function get_waitlist() public onlyRole(DOCTOR) returns (Donor[] memory, Recipient[] memory) {\n    Donor[] memory donors = new Donor[](donor_counter);\n    Recipient[] memory patients = new Recipient[](recipient_counter);\n\n    for (uint i = 0; i < donor_counter; i++) {\n      Donor storage donor = donor_list[i];\n      donors[i] = donor;\n    }\n\n    for (uint j = 0; j < recipient_counter; j++) {\n      Recipient storage patient = waitlist[j];\n      patients[j] = patient;\n    }\n\n    return (donors, patients);\n  } \n\n  function queue_recipient(string memory _name, uint _severity, uint _score, uint _age, Organ _organ, BloodType _blood_type) public onlyRole(DOCTOR) {\n    waitlist[recipient_counter] = Recipient(recipient_counter, _name, -1,  _severity, _score, _age, _organ, _blood_type);\n    recipient_counter++;\n    emit AddedToWaitlist(recipient_counter, true);\n  }\n\n  function match_donor(uint _recipient_id, uint _donor_id) public onlyRole(DOCTOR) {\n    Recipient memory _recipient = waitlist[_recipient_id];\n    Donor memory _donor = donor_list[_donor_id];\n\n    if (_recipient.donor_id == -1 && _donor.recipient_id == -1) {\n      _recipient.donor_id = int256(_donor_id);\n      _donor.recipient_id = int256(_recipient_id);\n\n      waitlist[_recipient_id] = _recipient;\n      donor_list[_donor_id] = _donor;\n\n      emit MatchedToDonor(_recipient_id, _donor_id, true);\n    } else {\n      emit MatchedToDonor(_recipient_id, _donor_id, false);\n    }\n  }\n\n  function register_donor(string memory _name, uint _age, Organ _organ, BloodType _blood_type) public onlyRole(DONOR) {\n    donor_list[donor_counter] = Donor(donor_counter, _name, -1, _age, _organ, _blood_type);\n    donor_counter++;\n\n    string memory _organ_name = \"\";\n    string memory _blood = \"\";\n\n    if (_organ == Organ.kidney ) {\n      _organ_name = \"kidney\";\n    } else if (_organ == Organ.liver ) {\n      _organ_name = \"liver\";\n    } else if (_organ == Organ.lung ) {\n      _organ_name = \"lung\";\n    } else if (_organ == Organ.pancreas ) {\n      _organ_name = \"pancreas\";\n    } else if (_organ == Organ.intestine ) {\n      _organ_name = \"intestine\";\n    } \n\n    if (_blood_type == BloodType.A ) {\n      _blood = \"A\";\n    } else if (_blood_type == BloodType.B ) {\n      _blood = \"B\";\n    } else if (_blood_type == BloodType.AB ) {\n      _blood = \"AB\";\n    } else if (_blood_type == BloodType.O ) {\n      _blood = \"O\";\n    }\n\n    emit DonorRegistered(donor_counter, _name, _age, _organ_name, _blood, false);\n  }\n}",
  "sourcePath": "/home/richardr2926/Desktop/organ_lock/blockchain/contracts/Waitlist.sol",
  "compiler": {
    "name": "solc",
    "version": "0.8.0+commit.c7dfd78e.Emscripten.clang"
  },
  "schemaVersion": "3.4.5",
  "updatedAt": "2022-03-05T14:48:17.057Z",
  "networkType": "ethereum",
  "devdoc": {
    "kind": "dev",
    "methods": {
      "getRoleAdmin(bytes32)": {
        "details": "Returns the admin role that controls `role`. See {grantRole} and {revokeRole}. To change a role's admin, use {_setRoleAdmin}."
      },
      "grantRole(bytes32,address)": {
        "details": "Grants `role` to `account`. If `account` had not been already granted `role`, emits a {RoleGranted} event. Requirements: - the caller must have ``role``'s admin role."
      },
      "hasRole(bytes32,address)": {
        "details": "Returns `true` if `account` has been granted `role`."
      },
      "renounceRole(bytes32,address)": {
        "details": "Revokes `role` from the calling account. Roles are often managed via {grantRole} and {revokeRole}: this function's purpose is to provide a mechanism for accounts to lose their privileges if they are compromised (such as when a trusted device is misplaced). If the calling account had been revoked `role`, emits a {RoleRevoked} event. Requirements: - the caller must be `account`."
      },
      "revokeRole(bytes32,address)": {
        "details": "Revokes `role` from `account`. If `account` had been granted `role`, emits a {RoleRevoked} event. Requirements: - the caller must have ``role``'s admin role."
      },
      "supportsInterface(bytes4)": {
        "details": "See {IERC165-supportsInterface}."
      }
    },
    "version": 1
  },
  "userdoc": {
    "kind": "user",
    "methods": {},
    "version": 1
  }
}