{
  "contractName": "Waitlist",
  "abi": [
    {
      "inputs": [
        {
          "internalType": "address",
          "name": "doctor",
          "type": "address"
        },
        {
          "internalType": "address",
          "name": "donor",
          "type": "address"
        }
      ],
      "stateMutability": "nonpayable",
      "type": "constructor"
    },
    {
      "anonymous": false,
      "inputs": [
        {
          "indexed": false,
          "internalType": "uint256",
          "name": "patient_id",
          "type": "uint256"
        },
        {
          "indexed": false,
          "internalType": "bool",
          "name": "in_list",
          "type": "bool"
        }
      ],
      "name": "AddedToWaitlist",
      "type": "event"
    },
    {
      "anonymous": false,
      "inputs": [
        {
          "indexed": false,
          "internalType": "uint256",
          "name": "donor_id",
          "type": "uint256"
        },
        {
          "indexed": false,
          "internalType": "string",
          "name": "donor_name",
          "type": "string"
        },
        {
          "indexed": false,
          "internalType": "uint256",
          "name": "age",
          "type": "uint256"
        },
        {
          "indexed": false,
          "internalType": "string",
          "name": "organ",
          "type": "string"
        },
        {
          "indexed": false,
          "internalType": "string",
          "name": "blood_type",
          "type": "string"
        },
        {
          "indexed": false,
          "internalType": "bool",
          "name": "matched",
          "type": "bool"
        }
      ],
      "name": "DonorRegistered",
      "type": "event"
    },
    {
      "anonymous": false,
      "inputs": [
        {
          "indexed": false,
          "internalType": "uint256",
          "name": "recipient_id",
          "type": "uint256"
        },
        {
          "indexed": false,
          "internalType": "uint256",
          "name": "donor_id",
          "type": "uint256"
        },
        {
          "indexed": false,
          "internalType": "bool",
          "name": "in_list",
          "type": "bool"
        }
      ],
      "name": "MatchedToDonor",
      "type": "event"
    },
    {
      "anonymous": false,
      "inputs": [
        {
          "indexed": true,
          "internalType": "bytes32",
          "name": "role",
          "type": "bytes32"
        },
        {
          "indexed": true,
          "internalType": "bytes32",
          "name": "previousAdminRole",
          "type": "bytes32"
        },
        {
          "indexed": true,
          "internalType": "bytes32",
          "name": "newAdminRole",
          "type": "bytes32"
        }
      ],
      "name": "RoleAdminChanged",
      "type": "event"
    },
    {
      "anonymous": false,
      "inputs": [
        {
          "indexed": true,
          "internalType": "bytes32",
          "name": "role",
          "type": "bytes32"
        },
        {
          "indexed": true,
          "internalType": "address",
          "name": "account",
          "type": "address"
        },
        {
          "indexed": true,
          "internalType": "address",
          "name": "sender",
          "type": "address"
        }
      ],
      "name": "RoleGranted",
      "type": "event"
    },
    {
      "anonymous": false,
      "inputs": [
        {
          "indexed": true,
          "internalType": "bytes32",
          "name": "role",
          "type": "bytes32"
        },
        {
          "indexed": true,
          "internalType": "address",
          "name": "account",
          "type": "address"
        },
        {
          "indexed": true,
          "internalType": "address",
          "name": "sender",
          "type": "address"
        }
      ],
      "name": "RoleRevoked",
      "type": "event"
    },
    {
      "inputs": [],
      "name": "DEFAULT_ADMIN_ROLE",
      "outputs": [
        {
          "internalType": "bytes32",
          "name": "",
          "type": "bytes32"
        }
      ],
      "stateMutability": "view",
      "type": "function",
      "constant": true
    },
    {
      "inputs": [],
      "name": "DOCTOR",
      "outputs": [
        {
          "internalType": "bytes32",
          "name": "",
          "type": "bytes32"
        }
      ],
      "stateMutability": "view",
      "type": "function",
      "constant": true
    },
    {
      "inputs": [],
      "name": "DONOR",
      "outputs": [
        {
          "internalType": "bytes32",
          "name": "",
          "type": "bytes32"
        }
      ],
      "stateMutability": "view",
      "type": "function",
      "constant": true
    },
    {
      "inputs": [
        {
          "internalType": "bytes32",
          "name": "role",
          "type": "bytes32"
        }
      ],
      "name": "getRoleAdmin",
      "outputs": [
        {
          "internalType": "bytes32",
          "name": "",
          "type": "bytes32"
        }
      ],
      "stateMutability": "view",
      "type": "function",
      "constant": true
    },
    {
      "inputs": [
        {
          "internalType": "bytes32",
          "name": "role",
          "type": "bytes32"
        },
        {
          "internalType": "address",
          "name": "account",
          "type": "address"
        }
      ],
      "name": "grantRole",
      "outputs": [],
      "stateMutability": "nonpayable",
      "type": "function"
    },
    {
      "inputs": [
        {
          "internalType": "bytes32",
          "name": "role",
          "type": "bytes32"
        },
        {
          "internalType": "address",
          "name": "account",
          "type": "address"
        }
      ],
      "name": "hasRole",
      "outputs": [
        {
          "internalType": "bool",
          "name": "",
          "type": "bool"
        }
      ],
      "stateMutability": "view",
      "type": "function",
      "constant": true
    },
    {
      "inputs": [
        {
          "internalType": "bytes32",
          "name": "role",
          "type": "bytes32"
        },
        {
          "internalType": "address",
          "name": "account",
          "type": "address"
        }
      ],
      "name": "renounceRole",
      "outputs": [],
      "stateMutability": "nonpayable",
      "type": "function"
    },
    {
      "inputs": [
        {
          "internalType": "bytes32",
          "name": "role",
          "type": "bytes32"
        },
        {
          "internalType": "address",
          "name": "account",
          "type": "address"
        }
      ],
      "name": "revokeRole",
      "outputs": [],
      "stateMutability": "nonpayable",
      "type": "function"
    },
    {
      "inputs": [
        {
          "internalType": "bytes4",
          "name": "interfaceId",
          "type": "bytes4"
        }
      ],
      "name": "supportsInterface",
      "outputs": [
        {
          "internalType": "bool",
          "name": "",
          "type": "bool"
        }
      ],
      "stateMutability": "view",
      "type": "function",
      "constant": true
    },
    {
      "inputs": [],
      "name": "get_waitlist",
      "outputs": [],
      "stateMutability": "nonpayable",
      "type": "function"
    },
    {
      "inputs": [
        {
          "internalType": "string",
          "name": "_name",
          "type": "string"
        },
        {
          "internalType": "uint256",
          "name": "_severity",
          "type": "uint256"
        },
        {
          "internalType": "uint256",
          "name": "_score",
          "type": "uint256"
        },
        {
          "internalType": "uint256",
          "name": "_age",
          "type": "uint256"
        },
        {
          "internalType": "enum Waitlist.Organ",
          "name": "_organ",
          "type": "uint8"
        },
        {
          "internalType": "enum Waitlist.BloodType",
          "name": "_blood_type",
          "type": "uint8"
        }
      ],
      "name": "queue_recipient",
      "outputs": [],
      "stateMutability": "nonpayable",
      "type": "function"
    },
    {
      "inputs": [
        {
          "internalType": "uint256",
          "name": "_recipient_id",
          "type": "uint256"
        },
        {
          "internalType": "uint256",
          "name": "_donor_id",
          "type": "uint256"
        }
      ],
      "name": "match_donor",
      "outputs": [],
      "stateMutability": "nonpayable",
      "type": "function"
    },
    {
      "inputs": [
        {
          "internalType": "string",
          "name": "_name",
          "type": "string"
        },
        {
          "internalType": "uint256",
          "name": "_age",
          "type": "uint256"
        },
        {
          "internalType": "enum Waitlist.Organ",
          "name": "_organ",
          "type": "uint8"
        },
        {
          "internalType": "enum Waitlist.BloodType",
          "name": "_blood_type",
          "type": "uint8"
        }
      ],
      "name": "register_donor",
      "outputs": [],
      "stateMutability": "nonpayable",
      "type": "function"
    }
  ],
  "bytecode": "0x6080604052600060015560006002553480156200001b57600080fd5b5060405162002a0438038062002a04833981810160405281019062000041919062000252565b620000566000801b33620000c260201b60201c565b620000887fc9c8e67a61d2e7371df46522b44051b955c16bf4b713ef44e1373b25bfcd80b283620000c260201b60201c565b620000ba7f7220c8c83db3df705edc2f907812addbce8b70b5f7208909f67735d3cf5ad72782620000c260201b60201c565b5050620002e1565b620000d48282620000d860201b60201c565b5050565b620000ea8282620001c960201b60201c565b620001c557600160008084815260200190815260200160002060000160008373ffffffffffffffffffffffffffffffffffffffff1673ffffffffffffffffffffffffffffffffffffffff16815260200190815260200160002060006101000a81548160ff0219169083151502179055506200016a6200023360201b60201c565b73ffffffffffffffffffffffffffffffffffffffff168173ffffffffffffffffffffffffffffffffffffffff16837f2f8788117e7eff1d82e926ec794901d17c78024a50270940304540a733656f0d60405160405180910390a45b5050565b600080600084815260200190815260200160002060000160008373ffffffffffffffffffffffffffffffffffffffff1673ffffffffffffffffffffffffffffffffffffffff16815260200190815260200160002060009054906101000a900460ff16905092915050565b600033905090565b6000815190506200024c81620002c7565b92915050565b600080604083850312156200026657600080fd5b600062000276858286016200023b565b925050602062000289858286016200023b565b9150509250929050565b6000620002a082620002a7565b9050919050565b600073ffffffffffffffffffffffffffffffffffffffff82169050919050565b620002d28162000293565b8114620002de57600080fd5b50565b61271380620002f16000396000f3fe608060405234801561001057600080fd5b50600436106100cf5760003560e01c80633f4d12ac1161008c578063a217fddf11610066578063a217fddf146101fe578063cf9bd03c1461021c578063d547741f14610238578063e683377d14610254576100cf565b80633f4d12ac146101a65780634576d251146101b057806391d14854146101ce576100cf565b806301ffc9a7146100d4578063248a9ca3146101045780632b15d275146101345780632efbdf82146101505780632f2ff15d1461016e57806336568abe1461018a575b600080fd5b6100ee60048036038101906100e99190611e40565b610270565b6040516100fb91906121b8565b60405180910390f35b61011e60048036038101906101199190611ddb565b6102ea565b60405161012b91906121d3565b60405180910390f35b61014e60048036038101906101499190611ee4565b610309565b005b610158610577565b60405161016591906121d3565b60405180910390f35b61018860048036038101906101839190611e04565b61059b565b005b6101a4600480360381019061019f9190611e04565b6105c4565b005b6101ae610647565b005b6101b861067c565b6040516101c591906121d3565b60405180910390f35b6101e860048036038101906101e39190611e04565b6106a0565b6040516101f591906121b8565b60405180910390f35b61020661070a565b60405161021391906121d3565b60405180910390f35b61023660048036038101906102319190611e69565b610711565b005b610252600480360381019061024d9190611e04565b610ff1565b005b61026e60048036038101906102699190611f85565b61101a565b005b60007f7965db0b000000000000000000000000000000000000000000000000000000007bffffffffffffffffffffffffffffffffffffffffffffffffffffffff1916827bffffffffffffffffffffffffffffffffffffffffffffffffffffffff191614806102e357506102e282611688565b5b9050919050565b6000806000838152602001908152602001600020600101549050919050565b7fc9c8e67a61d2e7371df46522b44051b955c16bf4b713ef44e1373b25bfcd80b261033b816103366116f2565b6116fa565b60405180610100016040528060015481526020018881526020017fffffffffffffffffffffffffffffffffffffffffffffffffffffffffffffffff81526020018781526020018681526020018581526020018460048111156103c6577f4e487b7100000000000000000000000000000000000000000000000000000000600052602160045260246000fd5b8152602001836003811115610404577f4e487b7100000000000000000000000000000000000000000000000000000000600052602160045260246000fd5b815250600360006001548152602001908152602001600020600082015181600001556020820151816001019080519060200190610442929190611c52565b5060408201518160020155606082015181600301556080820151816004015560a0820151816005015560c08201518160060160006101000a81548160ff021916908360048111156104bc577f4e487b7100000000000000000000000000000000000000000000000000000000600052602160045260246000fd5b021790555060e08201518160060160016101000a81548160ff02191690836003811115610512577f4e487b7100000000000000000000000000000000000000000000000000000000600052602160045260246000fd5b02179055509050506001600081548092919061052d9061257a565b91905055507fba456091740fee93432790ed4e67cfed3cc3b89431c81a925c8741d16396f3ff6001546001604051610566929190612250565b60405180910390a150505050505050565b7fc9c8e67a61d2e7371df46522b44051b955c16bf4b713ef44e1373b25bfcd80b281565b6105a4826102ea565b6105b5816105b06116f2565b6116fa565b6105bf8383611797565b505050565b6105cc6116f2565b73ffffffffffffffffffffffffffffffffffffffff168173ffffffffffffffffffffffffffffffffffffffff1614610639576040517f08c379a000000000000000000000000000000000000000000000000000000000815260040161063090612230565b60405180910390fd5b6106438282611877565b5050565b7fc9c8e67a61d2e7371df46522b44051b955c16bf4b713ef44e1373b25bfcd80b2610679816106746116f2565b6116fa565b50565b7f7220c8c83db3df705edc2f907812addbce8b70b5f7208909f67735d3cf5ad72781565b600080600084815260200190815260200160002060000160008373ffffffffffffffffffffffffffffffffffffffff1673ffffffffffffffffffffffffffffffffffffffff16815260200190815260200160002060009054906101000a900460ff16905092915050565b6000801b81565b7f7220c8c83db3df705edc2f907812addbce8b70b5f7208909f67735d3cf5ad7276107438161073e6116f2565b6116fa565b6040518060c0016040528060025481526020018681526020017fffffffffffffffffffffffffffffffffffffffffffffffffffffffffffffffff81526020018581526020018460048111156107c1577f4e487b7100000000000000000000000000000000000000000000000000000000600052602160045260246000fd5b81526020018360038111156107ff577f4e487b7100000000000000000000000000000000000000000000000000000000600052602160045260246000fd5b81525060046000600254815260200190815260200160002060008201518160000155602082015181600101908051906020019061083d929190611c52565b50604082015181600201556060820151816003015560808201518160040160006101000a81548160ff021916908360048111156108a3577f4e487b7100000000000000000000000000000000000000000000000000000000600052602160045260246000fd5b021790555060a08201518160040160016101000a81548160ff021916908360038111156108f9577f4e487b7100000000000000000000000000000000000000000000000000000000600052602160045260246000fd5b0217905550905050600260008154809291906109149061257a565b9190505550600060405180602001604052806000815250905060006040518060200160405280600081525090506000600481111561097b577f4e487b7100000000000000000000000000000000000000000000000000000000600052602160045260246000fd5b8560048111156109b4577f4e487b7100000000000000000000000000000000000000000000000000000000600052602160045260246000fd5b14156109f7576040518060400160405280600681526020017f6b69646e657900000000000000000000000000000000000000000000000000008152509150610cce565b60016004811115610a31577f4e487b7100000000000000000000000000000000000000000000000000000000600052602160045260246000fd5b856004811115610a6a577f4e487b7100000000000000000000000000000000000000000000000000000000600052602160045260246000fd5b1415610aad576040518060400160405280600581526020017f6c697665720000000000000000000000000000000000000000000000000000008152509150610ccd565b60026004811115610ae7577f4e487b7100000000000000000000000000000000000000000000000000000000600052602160045260246000fd5b856004811115610b20577f4e487b7100000000000000000000000000000000000000000000000000000000600052602160045260246000fd5b1415610b63576040518060400160405280600481526020017f6c756e67000000000000000000000000000000000000000000000000000000008152509150610ccc565b60036004811115610b9d577f4e487b7100000000000000000000000000000000000000000000000000000000600052602160045260246000fd5b856004811115610bd6577f4e487b7100000000000000000000000000000000000000000000000000000000600052602160045260246000fd5b1415610c19576040518060400160405280600881526020017f70616e63726561730000000000000000000000000000000000000000000000008152509150610ccb565b600480811115610c52577f4e487b7100000000000000000000000000000000000000000000000000000000600052602160045260246000fd5b856004811115610c8b577f4e487b7100000000000000000000000000000000000000000000000000000000600052602160045260246000fd5b1415610cca576040518060400160405280600981526020017f696e74657374696e65000000000000000000000000000000000000000000000081525091505b5b5b5b5b60006003811115610d08577f4e487b7100000000000000000000000000000000000000000000000000000000600052602160045260246000fd5b846003811115610d41577f4e487b7100000000000000000000000000000000000000000000000000000000600052602160045260246000fd5b1415610d84576040518060400160405280600181526020017f41000000000000000000000000000000000000000000000000000000000000008152509050610fa4565b60016003811115610dbe577f4e487b7100000000000000000000000000000000000000000000000000000000600052602160045260246000fd5b846003811115610df7577f4e487b7100000000000000000000000000000000000000000000000000000000600052602160045260246000fd5b1415610e3a576040518060400160405280600181526020017f42000000000000000000000000000000000000000000000000000000000000008152509050610fa3565b60026003811115610e74577f4e487b7100000000000000000000000000000000000000000000000000000000600052602160045260246000fd5b846003811115610ead577f4e487b7100000000000000000000000000000000000000000000000000000000600052602160045260246000fd5b1415610ef0576040518060400160405280600281526020017f41420000000000000000000000000000000000000000000000000000000000008152509050610fa2565b600380811115610f29577f4e487b7100000000000000000000000000000000000000000000000000000000600052602160045260246000fd5b846003811115610f62577f4e487b7100000000000000000000000000000000000000000000000000000000600052602160045260246000fd5b1415610fa1576040518060400160405280600181526020017f4f0000000000000000000000000000000000000000000000000000000000000081525090505b5b5b5b7f365d1fb13593d3d43f509799e5b3c778251cd0ba592d7de0f0c72600e19ba0e5600254888885856000604051610fe096959493929190612279565b60405180910390a150505050505050565b610ffa826102ea565b61100b816110066116f2565b6116fa565b6110158383611877565b505050565b7fc9c8e67a61d2e7371df46522b44051b955c16bf4b713ef44e1373b25bfcd80b261104c816110476116f2565b6116fa565b600060036000858152602001908152602001600020604051806101000160405290816000820154815260200160018201805461108790612548565b80601f01602080910402602001604051908101604052809291908181526020018280546110b390612548565b80156111005780601f106110d557610100808354040283529160200191611100565b820191906000526020600020905b8154815290600101906020018083116110e357829003601f168201915b50505050508152602001600282015481526020016003820154815260200160048201548152602001600582015481526020016006820160009054906101000a900460ff16600481111561117c577f4e487b7100000000000000000000000000000000000000000000000000000000600052602160045260246000fd5b60048111156111b4577f4e487b7100000000000000000000000000000000000000000000000000000000600052602160045260246000fd5b81526020016006820160019054906101000a900460ff166003811115611203577f4e487b7100000000000000000000000000000000000000000000000000000000600052602160045260246000fd5b600381111561123b577f4e487b7100000000000000000000000000000000000000000000000000000000600052602160045260246000fd5b8152505090506000600460008581526020019081526020016000206040518060c00160405290816000820154815260200160018201805461127b90612548565b80601f01602080910402602001604051908101604052809291908181526020018280546112a790612548565b80156112f45780601f106112c9576101008083540402835291602001916112f4565b820191906000526020600020905b8154815290600101906020018083116112d757829003601f168201915b5050505050815260200160028201548152602001600382015481526020016004820160009054906101000a900460ff16600481111561135c577f4e487b7100000000000000000000000000000000000000000000000000000000600052602160045260246000fd5b6004811115611394577f4e487b7100000000000000000000000000000000000000000000000000000000600052602160045260246000fd5b81526020016004820160019054906101000a900460ff1660038111156113e3577f4e487b7100000000000000000000000000000000000000000000000000000000600052602160045260246000fd5b600381111561141b577f4e487b7100000000000000000000000000000000000000000000000000000000600052602160045260246000fd5b8152505090508382604001818152505084816040018181525050816003600087815260200190815260200160002060008201518160000155602082015181600101908051906020019061146f929190611c52565b5060408201518160020155606082015181600301556080820151816004015560a0820151816005015560c08201518160060160006101000a81548160ff021916908360048111156114e9577f4e487b7100000000000000000000000000000000000000000000000000000000600052602160045260246000fd5b021790555060e08201518160060160016101000a81548160ff0219169083600381111561153f577f4e487b7100000000000000000000000000000000000000000000000000000000600052602160045260246000fd5b02179055509050508060046000868152602001908152602001600020600082015181600001556020820151816001019080519060200190611581929190611c52565b50604082015181600201556060820151816003015560808201518160040160006101000a81548160ff021916908360048111156115e7577f4e487b7100000000000000000000000000000000000000000000000000000000600052602160045260246000fd5b021790555060a08201518160040160016101000a81548160ff0219169083600381111561163d577f4e487b7100000000000000000000000000000000000000000000000000000000600052602160045260246000fd5b02179055509050507f0f61ee826cb499c21e666b2e406bd7914cc6b143913313a5d722a2a66bcd603b85856000604051611679939291906122ef565b60405180910390a15050505050565b60007f01ffc9a7000000000000000000000000000000000000000000000000000000007bffffffffffffffffffffffffffffffffffffffffffffffffffffffff1916827bffffffffffffffffffffffffffffffffffffffffffffffffffffffff1916149050919050565b600033905090565b61170482826106a0565b611793576117298173ffffffffffffffffffffffffffffffffffffffff166014611958565b6117378360001c6020611958565b60405160200161174892919061217e565b6040516020818303038152906040526040517f08c379a000000000000000000000000000000000000000000000000000000000815260040161178a91906121ee565b60405180910390fd5b5050565b6117a182826106a0565b61187357600160008084815260200190815260200160002060000160008373ffffffffffffffffffffffffffffffffffffffff1673ffffffffffffffffffffffffffffffffffffffff16815260200190815260200160002060006101000a81548160ff0219169083151502179055506118186116f2565b73ffffffffffffffffffffffffffffffffffffffff168173ffffffffffffffffffffffffffffffffffffffff16837f2f8788117e7eff1d82e926ec794901d17c78024a50270940304540a733656f0d60405160405180910390a45b5050565b61188182826106a0565b1561195457600080600084815260200190815260200160002060000160008373ffffffffffffffffffffffffffffffffffffffff1673ffffffffffffffffffffffffffffffffffffffff16815260200190815260200160002060006101000a81548160ff0219169083151502179055506118f96116f2565b73ffffffffffffffffffffffffffffffffffffffff168173ffffffffffffffffffffffffffffffffffffffff16837ff6391f5c32d9c69d2a47ea670b442974b53935d1edc7fd64eb21e047a839171b60405160405180910390a45b5050565b60606000600283600261196b9190612404565b61197591906123ae565b67ffffffffffffffff8111156119b4577f4e487b7100000000000000000000000000000000000000000000000000000000600052604160045260246000fd5b6040519080825280601f01601f1916602001820160405280156119e65781602001600182028036833780820191505090505b5090507f300000000000000000000000000000000000000000000000000000000000000081600081518110611a44577f4e487b7100000000000000000000000000000000000000000000000000000000600052603260045260246000fd5b60200101907effffffffffffffffffffffffffffffffffffffffffffffffffffffffffffff1916908160001a9053507f780000000000000000000000000000000000000000000000000000000000000081600181518110611ace577f4e487b7100000000000000000000000000000000000000000000000000000000600052603260045260246000fd5b60200101907effffffffffffffffffffffffffffffffffffffffffffffffffffffffffffff1916908160001a90535060006001846002611b0e9190612404565b611b1891906123ae565b90505b6001811115611c04577f3031323334353637383961626364656600000000000000000000000000000000600f861660108110611b80577f4e487b7100000000000000000000000000000000000000000000000000000000600052603260045260246000fd5b1a60f81b828281518110611bbd577f4e487b7100000000000000000000000000000000000000000000000000000000600052603260045260246000fd5b60200101907effffffffffffffffffffffffffffffffffffffffffffffffffffffffffffff1916908160001a905350600485901c945080611bfd9061251e565b9050611b1b565b5060008414611c48576040517f08c379a0000000000000000000000000000000000000000000000000000000008152600401611c3f90612210565b60405180910390fd5b8091505092915050565b828054611c5e90612548565b90600052602060002090601f016020900481019282611c805760008555611cc7565b82601f10611c9957805160ff1916838001178555611cc7565b82800160010185558215611cc7579182015b82811115611cc6578251825591602001919060010190611cab565b5b509050611cd49190611cd8565b5090565b5b80821115611cf1576000816000905550600101611cd9565b5090565b6000611d08611d0384612357565b612326565b905082815260208101848484011115611d2057600080fd5b611d2b8482856124dc565b509392505050565b600081359050611d4281612661565b92915050565b600081359050611d5781612678565b92915050565b600081359050611d6c8161268f565b92915050565b600081359050611d81816126a6565b92915050565b600081359050611d96816126b6565b92915050565b600082601f830112611dad57600080fd5b8135611dbd848260208601611cf5565b91505092915050565b600081359050611dd5816126c6565b92915050565b600060208284031215611ded57600080fd5b6000611dfb84828501611d48565b91505092915050565b60008060408385031215611e1757600080fd5b6000611e2585828601611d48565b9250506020611e3685828601611d33565b9150509250929050565b600060208284031215611e5257600080fd5b6000611e6084828501611d5d565b91505092915050565b60008060008060808587031215611e7f57600080fd5b600085013567ffffffffffffffff811115611e9957600080fd5b611ea587828801611d9c565b9450506020611eb687828801611dc6565b9350506040611ec787828801611d87565b9250506060611ed887828801611d72565b91505092959194509250565b60008060008060008060c08789031215611efd57600080fd5b600087013567ffffffffffffffff811115611f1757600080fd5b611f2389828a01611d9c565b9650506020611f3489828a01611dc6565b9550506040611f4589828a01611dc6565b9450506060611f5689828a01611dc6565b9350506080611f6789828a01611d87565b92505060a0611f7889828a01611d72565b9150509295509295509295565b60008060408385031215611f9857600080fd5b6000611fa685828601611dc6565b9250506020611fb785828601611dc6565b9150509250929050565b611fca81612470565b82525050565b611fd98161247c565b82525050565b6000611fea82612387565b611ff48185612392565b93506120048185602086016124eb565b61200d81612650565b840191505092915050565b600061202382612387565b61202d81856123a3565b935061203d8185602086016124eb565b80840191505092915050565b6000612056602083612392565b91507f537472696e67733a20686578206c656e67746820696e73756666696369656e746000830152602082019050919050565b60006120966017836123a3565b91507f416363657373436f6e74726f6c3a206163636f756e74200000000000000000006000830152601782019050919050565b60006120d66011836123a3565b91507f206973206d697373696e6720726f6c65200000000000000000000000000000006000830152601182019050919050565b6000612116602f83612392565b91507f416363657373436f6e74726f6c3a2063616e206f6e6c792072656e6f756e636560008301527f20726f6c657320666f722073656c6600000000000000000000000000000000006020830152604082019050919050565b612178816124d2565b82525050565b600061218982612089565b91506121958285612018565b91506121a0826120c9565b91506121ac8284612018565b91508190509392505050565b60006020820190506121cd6000830184611fc1565b92915050565b60006020820190506121e86000830184611fd0565b92915050565b600060208201905081810360008301526122088184611fdf565b905092915050565b6000602082019050818103600083015261222981612049565b9050919050565b6000602082019050818103600083015261224981612109565b9050919050565b6000604082019050612265600083018561216f565b6122726020830184611fc1565b9392505050565b600060c08201905061228e600083018961216f565b81810360208301526122a08188611fdf565b90506122af604083018761216f565b81810360608301526122c18186611fdf565b905081810360808301526122d58185611fdf565b90506122e460a0830184611fc1565b979650505050505050565b6000606082019050612304600083018661216f565b612311602083018561216f565b61231e6040830184611fc1565b949350505050565b6000604051905081810181811067ffffffffffffffff8211171561234d5761234c612621565b5b8060405250919050565b600067ffffffffffffffff82111561237257612371612621565b5b601f19601f8301169050602081019050919050565b600081519050919050565b600082825260208201905092915050565b600081905092915050565b60006123b9826124d2565b91506123c4836124d2565b9250827fffffffffffffffffffffffffffffffffffffffffffffffffffffffffffffffff038211156123f9576123f86125c3565b5b828201905092915050565b600061240f826124d2565b915061241a836124d2565b9250817fffffffffffffffffffffffffffffffffffffffffffffffffffffffffffffffff0483118215151615612453576124526125c3565b5b828202905092915050565b6000612469826124b2565b9050919050565b60008115159050919050565b6000819050919050565b60007fffffffff0000000000000000000000000000000000000000000000000000000082169050919050565b600073ffffffffffffffffffffffffffffffffffffffff82169050919050565b6000819050919050565b82818337600083830152505050565b60005b838110156125095780820151818401526020810190506124ee565b83811115612518576000848401525b50505050565b6000612529826124d2565b9150600082141561253d5761253c6125c3565b5b600182039050919050565b6000600282049050600182168061256057607f821691505b60208210811415612574576125736125f2565b5b50919050565b6000612585826124d2565b91507fffffffffffffffffffffffffffffffffffffffffffffffffffffffffffffffff8214156125b8576125b76125c3565b5b600182019050919050565b7f4e487b7100000000000000000000000000000000000000000000000000000000600052601160045260246000fd5b7f4e487b7100000000000000000000000000000000000000000000000000000000600052602260045260246000fd5b7f4e487b7100000000000000000000000000000000000000000000000000000000600052604160045260246000fd5b6000601f19601f8301169050919050565b61266a8161245e565b811461267557600080fd5b50565b6126818161247c565b811461268c57600080fd5b50565b61269881612486565b81146126a357600080fd5b50565b600481106126b357600080fd5b50565b600581106126c357600080fd5b50565b6126cf816124d2565b81146126da57600080fd5b5056fea2646970667358221220003dab6bbe204e6502f534cfbf72a5158fcaff2fa888c21be2f43cfbbca5c1c364736f6c63430008000033",
  "immutableReferences": {},
  "source": "// SPDX-License-Identifier: MIT\npragma solidity ^0.8.0;\n\nimport \"@openzeppelin/contracts/access/AccessControl.sol\";\n\ncontract Waitlist is AccessControl {\n\n  bytes32 public constant DOCTOR = keccak256(\"DOCTOR\");\n  bytes32 public constant DONOR = keccak256(\"DONOR\");\n\n  constructor (address doctor, address donor) public {\n    _setupRole(DEFAULT_ADMIN_ROLE, msg.sender);\n    _setupRole(DOCTOR, doctor);\n    _setupRole(DONOR, donor);\n  }\n\n\n  uint private recipient_counter = 0;\n  uint private donor_counter = 0;\n\n  enum Organ {\n      kidney,\n      liver,\n      lung,\n      pancreas,\n      intestine\n   }\n\n   enum BloodType {\n      A,\n      B,\n      AB,\n      O\n   }\n\n  struct Recipient {\n    uint id;\n    string name;\n    int256 donor_id;\n    uint severity;\n    uint score;\n    uint age;\n    Organ organ;\n    BloodType blood_type;\n  }\n\n  struct Donor {\n    uint id;\n    string name;\n    int256 recipient_id;\n    uint age;\n    Organ organ;\n    BloodType blood_type;\n  }\n\n  mapping(uint => Recipient) private waitlist;\n  mapping(uint => Donor) private donor_list;\n\n  event AddedToWaitlist(\n    uint patient_id,\n    bool in_list\n  );\n\n  event MatchedToDonor(\n    uint recipient_id,\n    uint donor_id,\n    bool in_list\n  );\n\n  event DonorRegistered(\n    uint donor_id,\n    string donor_name,\n    uint age,\n    string organ,\n    string blood_type,\n    bool matched\n  );\n\n  function get_waitlist() public onlyRole(DOCTOR) {\n\n  }\n\n  function queue_recipient(string memory _name, uint _severity, uint _score, uint _age, Organ _organ, BloodType _blood_type) public onlyRole(DOCTOR) {\n    waitlist[recipient_counter] = Recipient(recipient_counter, _name, -1,  _severity, _score, _age, _organ, _blood_type);\n    recipient_counter++;\n    emit AddedToWaitlist(recipient_counter, true);\n  }\n\n  function match_donor(uint _recipient_id, uint _donor_id) public onlyRole(DOCTOR) {\n    Recipient memory _recipient = waitlist[_recipient_id];\n    Donor memory _donor = donor_list[_donor_id];\n\n    _recipient.donor_id = int256(_donor_id);\n    _donor.recipient_id = int256(_recipient_id);\n\n    waitlist[_recipient_id] = _recipient;\n    donor_list[_donor_id] = _donor;\n\n    emit MatchedToDonor(_recipient_id, _donor_id, false);\n  }\n\n  function register_donor(string memory _name, uint _age, Organ _organ, BloodType _blood_type) public onlyRole(DONOR) {\n    donor_list[donor_counter] = Donor(donor_counter, _name, -1, _age, _organ, _blood_type);\n    donor_counter++;\n\n    string memory _organ_name = \"\";\n    string memory _blood = \"\";\n\n    if (_organ == Organ.kidney ) {\n      _organ_name = \"kidney\";\n    } else if (_organ == Organ.liver ) {\n      _organ_name = \"liver\";\n    } else if (_organ == Organ.lung ) {\n      _organ_name = \"lung\";\n    } else if (_organ == Organ.pancreas ) {\n      _organ_name = \"pancreas\";\n    } else if (_organ == Organ.intestine ) {\n      _organ_name = \"intestine\";\n    } \n\n    if (_blood_type == BloodType.A ) {\n      _blood = \"A\";\n    } else if (_blood_type == BloodType.B ) {\n      _blood = \"B\";\n    } else if (_blood_type == BloodType.AB ) {\n      _blood = \"AB\";\n    } else if (_blood_type == BloodType.O ) {\n      _blood = \"O\";\n    }\n\n    emit DonorRegistered(donor_counter, _name, _age, _organ_name, _blood, false);\n  }\n}",
  "sourcePath": "/home/richardr2926/Desktop/organ_lock/blockchain/contracts/Waitlist.sol",
  "compiler": {
    "name": "solc",
    "version": "0.8.0+commit.c7dfd78e.Emscripten.clang"
  },
  "schemaVersion": "3.4.5",
  "updatedAt": "2022-03-05T05:34:54.781Z",
  "networkType": "ethereum",
  "devdoc": {
    "kind": "dev",
    "methods": {
      "getRoleAdmin(bytes32)": {
        "details": "Returns the admin role that controls `role`. See {grantRole} and {revokeRole}. To change a role's admin, use {_setRoleAdmin}."
      },
      "grantRole(bytes32,address)": {
        "details": "Grants `role` to `account`. If `account` had not been already granted `role`, emits a {RoleGranted} event. Requirements: - the caller must have ``role``'s admin role."
      },
      "hasRole(bytes32,address)": {
        "details": "Returns `true` if `account` has been granted `role`."
      },
      "renounceRole(bytes32,address)": {
        "details": "Revokes `role` from the calling account. Roles are often managed via {grantRole} and {revokeRole}: this function's purpose is to provide a mechanism for accounts to lose their privileges if they are compromised (such as when a trusted device is misplaced). If the calling account had been revoked `role`, emits a {RoleRevoked} event. Requirements: - the caller must be `account`."
      },
      "revokeRole(bytes32,address)": {
        "details": "Revokes `role` from `account`. If `account` had been granted `role`, emits a {RoleRevoked} event. Requirements: - the caller must have ``role``'s admin role."
      },
      "supportsInterface(bytes4)": {
        "details": "See {IERC165-supportsInterface}."
      }
    },
    "version": 1
  },
  "userdoc": {
    "kind": "user",
    "methods": {},
    "version": 1
  }
}